{
  "_format": "hh-sol-artifact-1",
  "contractName": "CollegeBlockchain",
  "sourceName": "contracts/CollegeBlockchain.sol",
  "abi": [
    {
      "anonymous": false,
      "inputs": [
        {
          "indexed": false,
          "internalType": "uint256",
          "name": "studentId",
          "type": "uint256"
        },
        {
          "indexed": false,
          "internalType": "uint256",
          "name": "semester",
          "type": "uint256"
        },
        {
          "indexed": false,
          "internalType": "string",
          "name": "subject",
          "type": "string"
        },
        {
          "indexed": false,
          "internalType": "uint256",
          "name": "grade",
          "type": "uint256"
        }
      ],
      "name": "CreditsIssued",
      "type": "event"
    },
    {
      "anonymous": false,
      "inputs": [
        {
          "indexed": false,
          "internalType": "uint256",
          "name": "studentId",
          "type": "uint256"
        },
        {
          "indexed": false,
          "internalType": "string",
          "name": "name",
          "type": "string"
        }
      ],
      "name": "StudentCreated",
      "type": "event"
    },
    {
      "inputs": [],
      "name": "MAX_GRADES_PER_SEMESTER",
      "outputs": [
        {
          "internalType": "uint256",
          "name": "",
          "type": "uint256"
        }
      ],
      "stateMutability": "view",
      "type": "function"
    },
    {
      "inputs": [
        {
          "internalType": "string",
          "name": "_name",
          "type": "string"
        }
      ],
      "name": "createStudent",
      "outputs": [
        {
          "internalType": "uint256",
          "name": "",
          "type": "uint256"
        }
      ],
      "stateMutability": "nonpayable",
      "type": "function"
    },
    {
      "inputs": [
        {
          "internalType": "uint256",
          "name": "_studentId",
          "type": "uint256"
        }
      ],
      "name": "getCurrentSemester",
      "outputs": [
        {
          "internalType": "uint256",
          "name": "",
          "type": "uint256"
        }
      ],
      "stateMutability": "view",
      "type": "function"
    },
    {
      "inputs": [
        {
          "internalType": "uint256",
          "name": "_studentId",
          "type": "uint256"
        }
      ],
      "name": "getGrades",
      "outputs": [
        {
          "internalType": "uint256[]",
          "name": "",
          "type": "uint256[]"
        },
        {
          "internalType": "string[]",
          "name": "",
          "type": "string[]"
        }
      ],
      "stateMutability": "view",
      "type": "function"
    },
    {
      "inputs": [
        {
          "internalType": "uint256",
          "name": "_studentId",
          "type": "uint256"
        }
      ],
      "name": "getStudentDetails",
      "outputs": [
        {
          "internalType": "string",
          "name": "",
          "type": "string"
        },
        {
          "internalType": "uint256",
          "name": "",
          "type": "uint256"
        },
        {
          "internalType": "uint256",
          "name": "",
          "type": "uint256"
        }
      ],
      "stateMutability": "view",
      "type": "function"
    },
    {
      "inputs": [],
      "name": "getTotalStudents",
      "outputs": [
        {
          "internalType": "uint256",
          "name": "",
          "type": "uint256"
        }
      ],
      "stateMutability": "view",
      "type": "function"
    },
    {
      "inputs": [
        {
          "internalType": "uint256",
          "name": "_studentId",
          "type": "uint256"
        },
        {
          "internalType": "string",
          "name": "_subject",
          "type": "string"
        },
        {
          "internalType": "uint256",
          "name": "_grade",
          "type": "uint256"
        }
      ],
      "name": "issueCredits",
      "outputs": [],
      "stateMutability": "nonpayable",
      "type": "function"
    },
    {
      "inputs": [
        {
          "internalType": "uint256",
          "name": "",
          "type": "uint256"
        }
      ],
      "name": "students",
      "outputs": [
        {
          "internalType": "string",
          "name": "name",
          "type": "string"
        },
        {
          "internalType": "uint256",
          "name": "currentSemester",
          "type": "uint256"
        },
        {
          "internalType": "uint256",
          "name": "currentSubjectIndex",
          "type": "uint256"
        }
      ],
      "stateMutability": "view",
      "type": "function"
    },
    {
      "inputs": [],
      "name": "totalStudents",
      "outputs": [
        {
          "internalType": "uint256",
          "name": "",
          "type": "uint256"
        }
      ],
      "stateMutability": "view",
      "type": "function"
    }
  ],
  "bytecode": "0x608060405234801561001057600080fd5b506110af806100206000396000f3fe608060405234801561001057600080fd5b50600436106100935760003560e01c80639852bf8e116100665780639852bf8e14610136578063cbf4f0e714610154578063f36368ee14610172578063f80bc664146101a3578063fe3d7732146101d357610093565b806306ead22e1461009857806328bcb51a146100ca5780635308a2f4146100e857806386a9b36414610104575b600080fd5b6100b260048036038101906100ad919061090d565b610203565b6040516100c1939291906109e2565b60405180910390f35b6100d26102b5565b6040516100df9190610a20565b60405180910390f35b61010260048036038101906100fd9190610b70565b6102be565b005b61011e6004803603810190610119919061090d565b610461565b60405161012d939291906109e2565b60405180910390f35b61013e610543565b60405161014b9190610a20565b60405180910390f35b61015c610549565b6040516101699190610a20565b60405180910390f35b61018c6004803603810190610187919061090d565b61054e565b60405161019a929190610da9565b60405180910390f35b6101bd60048036038101906101b89190610de0565b61073d565b6040516101ca9190610a20565b60405180910390f35b6101ed60048036038101906101e8919061090d565b610800565b6040516101fa9190610a20565b60405180910390f35b600160205280600052604060002060009150905080600001805461022690610e58565b80601f016020809104026020016040519081016040528092919081815260200182805461025290610e58565b801561029f5780601f106102745761010080835404028352916020019161029f565b820191906000526020600020905b81548152906001019060200180831161028257829003601f168201915b5050505050908060030154908060040154905083565b60008054905090565b6008600160008581526020019081526020016000206003015410610317576040517f08c379a000000000000000000000000000000000000000000000000000000000815260040161030e90610ed6565b60405180910390fd5b60006001600085815260200190815260200160002060030154905060006001600086815260200190815260200160002060040154905082600160008781526020019081526020016000206001016000838152602001908152602001600020819055508360016000878152602001908152602001600020600201600083815260200190815260200160002090805190602001906103b4929190610820565b507f08eb584b5a32609486d914c177ac0a8f18b358989a7928a177c168c9a7ff8c4c858386866040516103ea9493929190610ef6565b60405180910390a180806103fd90610f71565b915050600060058261040f9190610fe9565b141561043f57818061042090610f71565b9250508160016000878152602001908152602001600020600301819055505b8060016000878152602001908152602001600020600401819055505050505050565b606060008060016000858152602001908152602001600020600001600160008681526020019081526020016000206003015460016000878152602001908152602001600020600401548280546104b690610e58565b80601f01602080910402602001604051908101604052809291908181526020018280546104e290610e58565b801561052f5780601f106105045761010080835404028352916020019161052f565b820191906000526020600020905b81548152906001019060200180831161051257829003601f168201915b505050505092509250925092509193909250565b60005481565b600581565b60608060006001600085815260200190815260200160002090506000816004015467ffffffffffffffff81111561058857610587610a45565b5b6040519080825280602002602001820160405280156105b65781602001602082028036833780820191505090505b5090506000826004015467ffffffffffffffff8111156105d9576105d8610a45565b5b60405190808252806020026020018201604052801561060c57816020015b60608152602001906001900390816105f75790505b50905060005b836004015481101561072e5760008460010160008381526020019081526020016000205490506000856002016000848152602001908152602001600020805461065a90610e58565b80601f016020809104026020016040519081016040528092919081815260200182805461068690610e58565b80156106d35780601f106106a8576101008083540402835291602001916106d3565b820191906000526020600020905b8154815290600101906020018083116106b657829003601f168201915b50505050509050818584815181106106ee576106ed61101a565b5b6020026020010181815250508084848151811061070e5761070d61101a565b5b60200260200101819052505050808061072690610f71565b915050610612565b50818194509450505050915091565b600080600081548092919061075190610f71565b91905055508160016000805481526020019081526020016000206000019080519060200190610781929190610820565b506001806000805481526020019081526020016000206003018190555060006001600080548152602001908152602001600020600401819055507f7f5f4ea2b8fe7becdadbf800a6b604580d349400c43d5437b6787b57db75caf4600054836040516107ee929190611049565b60405180910390a16000549050919050565b600060016000838152602001908152602001600020600301549050919050565b82805461082c90610e58565b90600052602060002090601f01602090048101928261084e5760008555610895565b82601f1061086757805160ff1916838001178555610895565b82800160010185558215610895579182015b82811115610894578251825591602001919060010190610879565b5b5090506108a291906108a6565b5090565b5b808211156108bf5760008160009055506001016108a7565b5090565b6000604051905090565b600080fd5b600080fd5b6000819050919050565b6108ea816108d7565b81146108f557600080fd5b50565b600081359050610907816108e1565b92915050565b600060208284031215610923576109226108cd565b5b6000610931848285016108f8565b91505092915050565b600081519050919050565b600082825260208201905092915050565b60005b83811015610974578082015181840152602081019050610959565b83811115610983576000848401525b50505050565b6000601f19601f8301169050919050565b60006109a58261093a565b6109af8185610945565b93506109bf818560208601610956565b6109c881610989565b840191505092915050565b6109dc816108d7565b82525050565b600060608201905081810360008301526109fc818661099a565b9050610a0b60208301856109d3565b610a1860408301846109d3565b949350505050565b6000602082019050610a3560008301846109d3565b92915050565b600080fd5b600080fd5b7f4e487b7100000000000000000000000000000000000000000000000000000000600052604160045260246000fd5b610a7d82610989565b810181811067ffffffffffffffff82111715610a9c57610a9b610a45565b5b80604052505050565b6000610aaf6108c3565b9050610abb8282610a74565b919050565b600067ffffffffffffffff821115610adb57610ada610a45565b5b610ae482610989565b9050602081019050919050565b82818337600083830152505050565b6000610b13610b0e84610ac0565b610aa5565b905082815260208101848484011115610b2f57610b2e610a40565b5b610b3a848285610af1565b509392505050565b600082601f830112610b5757610b56610a3b565b5b8135610b67848260208601610b00565b91505092915050565b600080600060608486031215610b8957610b886108cd565b5b6000610b97868287016108f8565b935050602084013567ffffffffffffffff811115610bb857610bb76108d2565b5b610bc486828701610b42565b9250506040610bd5868287016108f8565b9150509250925092565b600081519050919050565b600082825260208201905092915050565b6000819050602082019050919050565b610c14816108d7565b82525050565b6000610c268383610c0b565b60208301905092915050565b6000602082019050919050565b6000610c4a82610bdf565b610c548185610bea565b9350610c5f83610bfb565b8060005b83811015610c90578151610c778882610c1a565b9750610c8283610c32565b925050600181019050610c63565b5085935050505092915050565b600081519050919050565b600082825260208201905092915050565b6000819050602082019050919050565b600082825260208201905092915050565b6000610ce58261093a565b610cef8185610cc9565b9350610cff818560208601610956565b610d0881610989565b840191505092915050565b6000610d1f8383610cda565b905092915050565b6000602082019050919050565b6000610d3f82610c9d565b610d498185610ca8565b935083602082028501610d5b85610cb9565b8060005b85811015610d975784840389528151610d788582610d13565b9450610d8383610d27565b925060208a01995050600181019050610d5f565b50829750879550505050505092915050565b60006040820190508181036000830152610dc38185610c3f565b90508181036020830152610dd78184610d34565b90509392505050565b600060208284031215610df657610df56108cd565b5b600082013567ffffffffffffffff811115610e1457610e136108d2565b5b610e2084828501610b42565b91505092915050565b7f4e487b7100000000000000000000000000000000000000000000000000000000600052602260045260246000fd5b60006002820490506001821680610e7057607f821691505b60208210811415610e8457610e83610e29565b5b50919050565b7f416c6c2073656d6573746572732061726520636f6d706c657465640000000000600082015250565b6000610ec0601b83610945565b9150610ecb82610e8a565b602082019050919050565b60006020820190508181036000830152610eef81610eb3565b9050919050565b6000608082019050610f0b60008301876109d3565b610f1860208301866109d3565b8181036040830152610f2a818561099a565b9050610f3960608301846109d3565b95945050505050565b7f4e487b7100000000000000000000000000000000000000000000000000000000600052601160045260246000fd5b6000610f7c826108d7565b91507fffffffffffffffffffffffffffffffffffffffffffffffffffffffffffffffff821415610faf57610fae610f42565b5b600182019050919050565b7f4e487b7100000000000000000000000000000000000000000000000000000000600052601260045260246000fd5b6000610ff4826108d7565b9150610fff836108d7565b92508261100f5761100e610fba565b5b828206905092915050565b7f4e487b7100000000000000000000000000000000000000000000000000000000600052603260045260246000fd5b600060408201905061105e60008301856109d3565b8181036020830152611070818461099a565b9050939250505056fea264697066735822122051f92fd882e6a9f6f6a124a2d1d25db9072eebd8fc1ed8670f0c39748210f4a364736f6c634300080b0033",
  "linkReferences": {},
  "deployedLinkReferences": {}
}