{
  "_format": "hh-sol-artifact-1",
  "contractName": "CollegeBlockchain",
  "sourceName": "contracts/CollegeBlockchain.sol",
  "abi": [
    {
      "anonymous": false,
      "inputs": [
        {
          "indexed": true,
          "internalType": "uint256",
          "name": "studentId",
          "type": "uint256"
        },
        {
          "indexed": true,
          "internalType": "uint256",
          "name": "semester",
          "type": "uint256"
        },
        {
          "indexed": false,
          "internalType": "string",
          "name": "subject",
          "type": "string"
        },
        {
          "indexed": false,
          "internalType": "uint256",
          "name": "grade",
          "type": "uint256"
        }
      ],
      "name": "GradesUpdated",
      "type": "event"
    },
    {
      "anonymous": false,
      "inputs": [
        {
          "indexed": true,
          "internalType": "uint256",
          "name": "studentId",
          "type": "uint256"
        },
        {
          "indexed": false,
          "internalType": "string",
          "name": "name",
          "type": "string"
        }
      ],
      "name": "StudentRegistered",
      "type": "event"
    },
    {
      "inputs": [
        {
          "internalType": "uint256",
          "name": "_studentId",
          "type": "uint256"
        },
        {
          "internalType": "uint256",
          "name": "_semester",
          "type": "uint256"
        },
        {
          "internalType": "string",
          "name": "_subject",
          "type": "string"
        }
      ],
      "name": "getGrade",
      "outputs": [
        {
          "internalType": "uint256",
          "name": "",
          "type": "uint256"
        }
      ],
      "stateMutability": "view",
      "type": "function"
    },
    {
      "inputs": [
        {
          "internalType": "uint256",
          "name": "_studentId",
          "type": "uint256"
        }
      ],
      "name": "getStudentInfo",
      "outputs": [
        {
          "internalType": "uint256",
          "name": "",
          "type": "uint256"
        },
        {
          "internalType": "string",
          "name": "",
          "type": "string"
        }
      ],
      "stateMutability": "view",
      "type": "function"
    },
    {
      "inputs": [],
      "name": "getTotalStudents",
      "outputs": [
        {
          "internalType": "uint256",
          "name": "",
          "type": "uint256"
        }
      ],
      "stateMutability": "view",
      "type": "function"
    },
    {
      "inputs": [
        {
          "internalType": "uint256",
          "name": "_studentId",
          "type": "uint256"
        },
        {
          "internalType": "string",
          "name": "_name",
          "type": "string"
        }
      ],
      "name": "registerStudent",
      "outputs": [],
      "stateMutability": "nonpayable",
      "type": "function"
    },
    {
      "inputs": [
        {
          "internalType": "uint256",
          "name": "",
          "type": "uint256"
        }
      ],
      "name": "students",
      "outputs": [
        {
          "internalType": "uint256",
          "name": "studentId",
          "type": "uint256"
        },
        {
          "internalType": "string",
          "name": "name",
          "type": "string"
        }
      ],
      "stateMutability": "view",
      "type": "function"
    },
    {
      "inputs": [],
      "name": "totalStudents",
      "outputs": [
        {
          "internalType": "uint256",
          "name": "",
          "type": "uint256"
        }
      ],
      "stateMutability": "view",
      "type": "function"
    },
    {
      "inputs": [
        {
          "internalType": "uint256",
          "name": "_studentId",
          "type": "uint256"
        },
        {
          "internalType": "uint256",
          "name": "_semester",
          "type": "uint256"
        },
        {
          "internalType": "string",
          "name": "_subject",
          "type": "string"
        },
        {
          "internalType": "uint256",
          "name": "_grade",
          "type": "uint256"
        }
      ],
      "name": "updateGrades",
      "outputs": [],
      "stateMutability": "nonpayable",
      "type": "function"
    }
  ],
  "bytecode": "0x608060405234801561001057600080fd5b50610cea806100206000396000f3fe608060405234801561001057600080fd5b506004361061007d5760003560e01c80633f9586d41161005b5780633f9586d41461010157806365a81d7d1461011d5780639852bf8e1461014e578063c1ace8e21461016c5761007d565b806306ead22e1461008257806328bcb51a146100b35780632df8e66d146100d1575b600080fd5b61009c6004803603810190610097919061064f565b610188565b6040516100aa929190610724565b60405180910390f35b6100bb610234565b6040516100c89190610754565b60405180910390f35b6100eb60048036038101906100e691906108a4565b61023e565b6040516100f89190610754565b60405180910390f35b61011b60048036038101906101169190610913565b61028c565b005b6101376004803603810190610132919061064f565b61037c565b604051610145929190610724565b60405180910390f35b610156610491565b6040516101639190610754565b60405180910390f35b6101866004803603810190610181919061096f565b610497565b005b60006020528060005260406000206000915090508060000154908060010180546101b190610a21565b80601f01602080910402602001604051908101604052809291908181526020018280546101dd90610a21565b801561022a5780601f106101ff5761010080835404028352916020019161022a565b820191906000526020600020905b81548152906001019060200180831161020d57829003601f168201915b5050505050905082565b6000600154905090565b60008060008581526020019081526020016000206002016000848152602001908152602001600020826040516102749190610a8f565b90815260200160405180910390205490509392505050565b600080600084815260200190815260200160002060000154146102e4576040517f08c379a00000000000000000000000000000000000000000000000000000000081526004016102db90610af2565b60405180910390fd5b8160008084815260200190815260200160002060000181905550806000808481526020019081526020016000206001019080519060200190610327929190610562565b506001600081548092919061033b90610b41565b9190505550817f82972a188d7a560cf772804ac1cadfb42df2654ff1ded99159259c287ead2630826040516103709190610b8a565b60405180910390a25050565b6000606060008311801561039257506001548311155b6103d1576040517f08c379a00000000000000000000000000000000000000000000000000000000081526004016103c890610bf8565b60405180910390fd5b6000808481526020019081526020016000206000015460008085815260200190815260200160002060010180805461040890610a21565b80601f016020809104026020016040519081016040528092919081815260200182805461043490610a21565b80156104815780601f1061045657610100808354040283529160200191610481565b820191906000526020600020905b81548152906001019060200180831161046457829003601f168201915b5050505050905091509150915091565b60015481565b600083116104da576040517f08c379a00000000000000000000000000000000000000000000000000000000081526004016104d190610c64565b60405180910390fd5b8060008086815260200190815260200160002060020160008581526020019081526020016000208360405161050f9190610a8f565b90815260200160405180910390208190555082847ff1edef058f6046b224f752b07d1e09e8eaa25fe6c4c1d9544fd6ab81f09b09048484604051610554929190610c84565b60405180910390a350505050565b82805461056e90610a21565b90600052602060002090601f01602090048101928261059057600085556105d7565b82601f106105a957805160ff19168380011785556105d7565b828001600101855582156105d7579182015b828111156105d65782518255916020019190600101906105bb565b5b5090506105e491906105e8565b5090565b5b808211156106015760008160009055506001016105e9565b5090565b6000604051905090565b600080fd5b600080fd5b6000819050919050565b61062c81610619565b811461063757600080fd5b50565b60008135905061064981610623565b92915050565b6000602082840312156106655761066461060f565b5b60006106738482850161063a565b91505092915050565b61068581610619565b82525050565b600081519050919050565b600082825260208201905092915050565b60005b838110156106c55780820151818401526020810190506106aa565b838111156106d4576000848401525b50505050565b6000601f19601f8301169050919050565b60006106f68261068b565b6107008185610696565b93506107108185602086016106a7565b610719816106da565b840191505092915050565b6000604082019050610739600083018561067c565b818103602083015261074b81846106eb565b90509392505050565b6000602082019050610769600083018461067c565b92915050565b600080fd5b600080fd5b7f4e487b7100000000000000000000000000000000000000000000000000000000600052604160045260246000fd5b6107b1826106da565b810181811067ffffffffffffffff821117156107d0576107cf610779565b5b80604052505050565b60006107e3610605565b90506107ef82826107a8565b919050565b600067ffffffffffffffff82111561080f5761080e610779565b5b610818826106da565b9050602081019050919050565b82818337600083830152505050565b6000610847610842846107f4565b6107d9565b90508281526020810184848401111561086357610862610774565b5b61086e848285610825565b509392505050565b600082601f83011261088b5761088a61076f565b5b813561089b848260208601610834565b91505092915050565b6000806000606084860312156108bd576108bc61060f565b5b60006108cb8682870161063a565b93505060206108dc8682870161063a565b925050604084013567ffffffffffffffff8111156108fd576108fc610614565b5b61090986828701610876565b9150509250925092565b6000806040838503121561092a5761092961060f565b5b60006109388582860161063a565b925050602083013567ffffffffffffffff81111561095957610958610614565b5b61096585828601610876565b9150509250929050565b600080600080608085870312156109895761098861060f565b5b60006109978782880161063a565b94505060206109a88782880161063a565b935050604085013567ffffffffffffffff8111156109c9576109c8610614565b5b6109d587828801610876565b92505060606109e68782880161063a565b91505092959194509250565b7f4e487b7100000000000000000000000000000000000000000000000000000000600052602260045260246000fd5b60006002820490506001821680610a3957607f821691505b60208210811415610a4d57610a4c6109f2565b5b50919050565b600081905092915050565b6000610a698261068b565b610a738185610a53565b9350610a838185602086016106a7565b80840191505092915050565b6000610a9b8284610a5e565b915081905092915050565b7f53747564656e7420494420616c72656164792065786973747300000000000000600082015250565b6000610adc601983610696565b9150610ae782610aa6565b602082019050919050565b60006020820190508181036000830152610b0b81610acf565b9050919050565b7f4e487b7100000000000000000000000000000000000000000000000000000000600052601160045260246000fd5b6000610b4c82610619565b91507fffffffffffffffffffffffffffffffffffffffffffffffffffffffffffffffff821415610b7f57610b7e610b12565b5b600182019050919050565b60006020820190508181036000830152610ba481846106eb565b905092915050565b7f496e76616c69642073747564656e742049440000000000000000000000000000600082015250565b6000610be2601283610696565b9150610bed82610bac565b602082019050919050565b60006020820190508181036000830152610c1181610bd5565b9050919050565b7f496e76616c69642073656d657374657200000000000000000000000000000000600082015250565b6000610c4e601083610696565b9150610c5982610c18565b602082019050919050565b60006020820190508181036000830152610c7d81610c41565b9050919050565b60006040820190508181036000830152610c9e81856106eb565b9050610cad602083018461067c565b939250505056fea2646970667358221220e75f861d22d291637ce083559a379b9f9034299d53611982c93e3fa7a727e2bc64736f6c634300080b0033",
  "linkReferences": {},
  "deployedLinkReferences": {}
}