{
  "_format": "hh-sol-artifact-1",
  "contractName": "CollegeBlockchain",
  "sourceName": "contracts/CollegeBlockchain.sol",
  "abi": [
    {
      "anonymous": false,
      "inputs": [
        {
          "indexed": true,
          "internalType": "address",
          "name": "student",
          "type": "address"
        },
        {
          "indexed": true,
          "internalType": "uint256",
          "name": "semester",
          "type": "uint256"
        },
        {
          "indexed": false,
          "internalType": "string",
          "name": "subject",
          "type": "string"
        },
        {
          "indexed": false,
          "internalType": "uint256",
          "name": "grade",
          "type": "uint256"
        }
      ],
      "name": "GradesUpdated",
      "type": "event"
    },
    {
      "inputs": [
        {
          "internalType": "uint256",
          "name": "",
          "type": "uint256"
        }
      ],
      "name": "students",
      "outputs": [
        {
          "internalType": "uint256",
          "name": "studentId",
          "type": "uint256"
        },
        {
          "internalType": "string",
          "name": "name",
          "type": "string"
        }
      ],
      "stateMutability": "view",
      "type": "function"
    },
    {
      "inputs": [],
      "name": "totalStudents",
      "outputs": [
        {
          "internalType": "uint256",
          "name": "",
          "type": "uint256"
        }
      ],
      "stateMutability": "view",
      "type": "function"
    },
    {
      "inputs": [
        {
          "internalType": "uint256",
          "name": "_uid",
          "type": "uint256"
        },
        {
          "internalType": "uint256",
          "name": "_semester",
          "type": "uint256"
        },
        {
          "internalType": "string",
          "name": "_subject",
          "type": "string"
        },
        {
          "internalType": "uint256",
          "name": "_grade",
          "type": "uint256"
        }
      ],
      "name": "updateGrades",
      "outputs": [],
      "stateMutability": "nonpayable",
      "type": "function"
    }
  ],
  "bytecode": "0x608060405234801561001057600080fd5b506106ec806100206000396000f3fe608060405234801561001057600080fd5b50600436106100415760003560e01c806306ead22e146100465780639852bf8e14610077578063c1ace8e214610095575b600080fd5b610060600480360381019061005b919061028e565b6100b1565b60405161006e929190610363565b60405180910390f35b61007f61015d565b60405161008c9190610393565b60405180910390f35b6100af60048036038101906100aa91906104e3565b610163565b005b60006020528060005260406000206000915090508060000154908060010180546100da90610595565b80601f016020809104026020016040519081016040528092919081815260200182805461010690610595565b80156101535780601f1061012857610100808354040283529160200191610153565b820191906000526020600020905b81548152906001019060200180831161013657829003601f168201915b5050505050905082565b60015481565b600083116101a6576040517f08c379a000000000000000000000000000000000000000000000000000000000815260040161019d90610613565b60405180910390fd5b806000808681526020019081526020016000206002016000858152602001908152602001600020836040516101db919061066f565b908152602001604051809103902081905550823373ffffffffffffffffffffffffffffffffffffffff167ffada27284b574fe4ba27134a82f12324b1bd1f1d906e647b97eed1efc8df2f638484604051610236929190610686565b60405180910390a350505050565b6000604051905090565b600080fd5b600080fd5b6000819050919050565b61026b81610258565b811461027657600080fd5b50565b60008135905061028881610262565b92915050565b6000602082840312156102a4576102a361024e565b5b60006102b284828501610279565b91505092915050565b6102c481610258565b82525050565b600081519050919050565b600082825260208201905092915050565b60005b838110156103045780820151818401526020810190506102e9565b83811115610313576000848401525b50505050565b6000601f19601f8301169050919050565b6000610335826102ca565b61033f81856102d5565b935061034f8185602086016102e6565b61035881610319565b840191505092915050565b600060408201905061037860008301856102bb565b818103602083015261038a818461032a565b90509392505050565b60006020820190506103a860008301846102bb565b92915050565b600080fd5b600080fd5b7f4e487b7100000000000000000000000000000000000000000000000000000000600052604160045260246000fd5b6103f082610319565b810181811067ffffffffffffffff8211171561040f5761040e6103b8565b5b80604052505050565b6000610422610244565b905061042e82826103e7565b919050565b600067ffffffffffffffff82111561044e5761044d6103b8565b5b61045782610319565b9050602081019050919050565b82818337600083830152505050565b600061048661048184610433565b610418565b9050828152602081018484840111156104a2576104a16103b3565b5b6104ad848285610464565b509392505050565b600082601f8301126104ca576104c96103ae565b5b81356104da848260208601610473565b91505092915050565b600080600080608085870312156104fd576104fc61024e565b5b600061050b87828801610279565b945050602061051c87828801610279565b935050604085013567ffffffffffffffff81111561053d5761053c610253565b5b610549878288016104b5565b925050606061055a87828801610279565b91505092959194509250565b7f4e487b7100000000000000000000000000000000000000000000000000000000600052602260045260246000fd5b600060028204905060018216806105ad57607f821691505b602082108114156105c1576105c0610566565b5b50919050565b7f496e76616c69642073656d657374657200000000000000000000000000000000600082015250565b60006105fd6010836102d5565b9150610608826105c7565b602082019050919050565b6000602082019050818103600083015261062c816105f0565b9050919050565b600081905092915050565b6000610649826102ca565b6106538185610633565b93506106638185602086016102e6565b80840191505092915050565b600061067b828461063e565b915081905092915050565b600060408201905081810360008301526106a0818561032a565b90506106af60208301846102bb565b939250505056fea264697066735822122081d1bf7c66cfae75d1c21676b35109b3bd3e5c6a28418654060513b8e744561d64736f6c634300080b0033",
  "linkReferences": {},
  "deployedLinkReferences": {}
}