{
  "_format": "hh-sol-artifact-1",
  "contractName": "PublicBlockchain",
  "sourceName": "contracts/PublicBlockchain.sol",
  "abi": [
    {
      "anonymous": false,
      "inputs": [
        {
          "indexed": true,
          "internalType": "uint256",
          "name": "collegeUid",
          "type": "uint256"
        },
        {
          "indexed": false,
          "internalType": "string",
          "name": "name",
          "type": "string"
        }
      ],
      "name": "CollegeCreated",
      "type": "event"
    },
    {
      "anonymous": false,
      "inputs": [
        {
          "indexed": true,
          "internalType": "uint256",
          "name": "courseUid",
          "type": "uint256"
        },
        {
          "indexed": false,
          "internalType": "string",
          "name": "name",
          "type": "string"
        },
        {
          "indexed": false,
          "internalType": "uint256",
          "name": "credits",
          "type": "uint256"
        },
        {
          "indexed": true,
          "internalType": "uint256",
          "name": "collegeUid",
          "type": "uint256"
        }
      ],
      "name": "CourseAdded",
      "type": "event"
    },
    {
      "anonymous": false,
      "inputs": [
        {
          "indexed": false,
          "internalType": "uint256",
          "name": "studentId",
          "type": "uint256"
        },
        {
          "indexed": false,
          "internalType": "string",
          "name": "courseName",
          "type": "string"
        },
        {
          "indexed": false,
          "internalType": "uint256",
          "name": "grades",
          "type": "uint256"
        },
        {
          "indexed": false,
          "internalType": "uint256",
          "name": "clgId",
          "type": "uint256"
        }
      ],
      "name": "CreditsIssued",
      "type": "event"
    },
    {
      "anonymous": false,
      "inputs": [
        {
          "indexed": false,
          "internalType": "uint256",
          "name": "studentId",
          "type": "uint256"
        },
        {
          "indexed": false,
          "internalType": "string",
          "name": "name",
          "type": "string"
        }
      ],
      "name": "StudentCreated",
      "type": "event"
    },
    {
      "anonymous": false,
      "inputs": [
        {
          "indexed": true,
          "internalType": "uint256",
          "name": "studentId",
          "type": "uint256"
        },
        {
          "indexed": true,
          "internalType": "uint256",
          "name": "courseUid",
          "type": "uint256"
        },
        {
          "indexed": false,
          "internalType": "string",
          "name": "name",
          "type": "string"
        }
      ],
      "name": "StudentEnrolled",
      "type": "event"
    },
    {
      "inputs": [
        {
          "internalType": "string",
          "name": "_name",
          "type": "string"
        }
      ],
      "name": "addCollege",
      "outputs": [
        {
          "internalType": "uint256",
          "name": "",
          "type": "uint256"
        }
      ],
      "stateMutability": "nonpayable",
      "type": "function"
    },
    {
      "inputs": [
        {
          "internalType": "uint256",
          "name": "_collegeUid",
          "type": "uint256"
        },
        {
          "internalType": "string",
          "name": "_name",
          "type": "string"
        },
        {
          "internalType": "uint256",
          "name": "_credits",
          "type": "uint256"
        }
      ],
      "name": "addCourse",
      "outputs": [
        {
          "internalType": "uint256",
          "name": "",
          "type": "uint256"
        }
      ],
      "stateMutability": "nonpayable",
      "type": "function"
    },
    {
      "inputs": [
        {
          "internalType": "uint256",
          "name": "",
          "type": "uint256"
        }
      ],
      "name": "colleges",
      "outputs": [
        {
          "internalType": "uint256",
          "name": "collegeUid",
          "type": "uint256"
        },
        {
          "internalType": "string",
          "name": "name",
          "type": "string"
        }
      ],
      "stateMutability": "view",
      "type": "function"
    },
    {
      "inputs": [
        {
          "internalType": "uint256",
          "name": "",
          "type": "uint256"
        }
      ],
      "name": "courses",
      "outputs": [
        {
          "internalType": "uint256",
          "name": "courseUid",
          "type": "uint256"
        },
        {
          "internalType": "string",
          "name": "name",
          "type": "string"
        },
        {
          "internalType": "uint256",
          "name": "credits",
          "type": "uint256"
        },
        {
          "internalType": "uint256",
          "name": "collegeUid",
          "type": "uint256"
        },
        {
          "internalType": "bool",
          "name": "available",
          "type": "bool"
        }
      ],
      "stateMutability": "view",
      "type": "function"
    },
    {
      "inputs": [
        {
          "internalType": "string",
          "name": "_name",
          "type": "string"
        },
        {
          "internalType": "uint256",
          "name": "clgId",
          "type": "uint256"
        }
      ],
      "name": "createStudent",
      "outputs": [
        {
          "internalType": "uint256",
          "name": "",
          "type": "uint256"
        }
      ],
      "stateMutability": "nonpayable",
      "type": "function"
    },
    {
      "inputs": [
        {
          "internalType": "uint256",
          "name": "_studentId",
          "type": "uint256"
        },
        {
          "internalType": "uint256",
          "name": "_courseUid",
          "type": "uint256"
        }
      ],
      "name": "enrollStudent",
      "outputs": [],
      "stateMutability": "nonpayable",
      "type": "function"
    },
    {
      "inputs": [
        {
          "internalType": "uint256",
          "name": "",
          "type": "uint256"
        },
        {
          "internalType": "uint256",
          "name": "",
          "type": "uint256"
        }
      ],
      "name": "enrolledStudents",
      "outputs": [
        {
          "internalType": "bool",
          "name": "",
          "type": "bool"
        }
      ],
      "stateMutability": "view",
      "type": "function"
    },
    {
      "inputs": [],
      "name": "getAllStudentDetails",
      "outputs": [
        {
          "internalType": "string[]",
          "name": "",
          "type": "string[]"
        },
        {
          "internalType": "uint256[][]",
          "name": "",
          "type": "uint256[][]"
        }
      ],
      "stateMutability": "view",
      "type": "function"
    },
    {
      "inputs": [
        {
          "internalType": "uint256",
          "name": "_collegeUid",
          "type": "uint256"
        }
      ],
      "name": "getCollegeDetails",
      "outputs": [
        {
          "internalType": "string",
          "name": "",
          "type": "string"
        },
        {
          "internalType": "uint256[]",
          "name": "",
          "type": "uint256[]"
        }
      ],
      "stateMutability": "view",
      "type": "function"
    },
    {
      "inputs": [
        {
          "internalType": "uint256",
          "name": "_courseUid",
          "type": "uint256"
        }
      ],
      "name": "getCourseDetails",
      "outputs": [
        {
          "internalType": "string",
          "name": "",
          "type": "string"
        },
        {
          "internalType": "uint256",
          "name": "",
          "type": "uint256"
        },
        {
          "internalType": "uint256",
          "name": "",
          "type": "uint256"
        }
      ],
      "stateMutability": "view",
      "type": "function"
    },
    {
      "inputs": [
        {
          "internalType": "uint256",
          "name": "_collegeUid",
          "type": "uint256"
        }
      ],
      "name": "getInstituteDetails",
      "outputs": [
        {
          "internalType": "string",
          "name": "",
          "type": "string"
        },
        {
          "internalType": "uint256[]",
          "name": "",
          "type": "uint256[]"
        }
      ],
      "stateMutability": "view",
      "type": "function"
    },
    {
      "inputs": [],
      "name": "getNumberOfColleges",
      "outputs": [
        {
          "internalType": "uint256",
          "name": "",
          "type": "uint256"
        }
      ],
      "stateMutability": "view",
      "type": "function"
    },
    {
      "inputs": [
        {
          "internalType": "uint256",
          "name": "_collegeUid",
          "type": "uint256"
        }
      ],
      "name": "getNumberOfCoursesByCollege",
      "outputs": [
        {
          "internalType": "uint256",
          "name": "",
          "type": "uint256"
        }
      ],
      "stateMutability": "view",
      "type": "function"
    },
    {
      "inputs": [
        {
          "internalType": "uint256",
          "name": "_collegeUid",
          "type": "uint256"
        }
      ],
      "name": "getNumberOfCoursesByInstitute",
      "outputs": [
        {
          "internalType": "uint256",
          "name": "",
          "type": "uint256"
        }
      ],
      "stateMutability": "view",
      "type": "function"
    },
    {
      "inputs": [
        {
          "internalType": "uint256",
          "name": "_courseUid",
          "type": "uint256"
        }
      ],
      "name": "getNumberOfStudentsEnrolled",
      "outputs": [
        {
          "internalType": "uint256",
          "name": "",
          "type": "uint256"
        }
      ],
      "stateMutability": "view",
      "type": "function"
    },
    {
      "inputs": [
        {
          "internalType": "uint256",
          "name": "_studentId",
          "type": "uint256"
        }
      ],
      "name": "getStudentDetails",
      "outputs": [
        {
          "internalType": "string",
          "name": "",
          "type": "string"
        },
        {
          "internalType": "uint256[]",
          "name": "",
          "type": "uint256[]"
        },
        {
          "internalType": "uint256",
          "name": "",
          "type": "uint256"
        }
      ],
      "stateMutability": "view",
      "type": "function"
    },
    {
      "inputs": [
        {
          "internalType": "uint256",
          "name": "_studentId",
          "type": "uint256"
        }
      ],
      "name": "getStudentGrades",
      "outputs": [
        {
          "internalType": "string[]",
          "name": "",
          "type": "string[]"
        },
        {
          "internalType": "uint256[]",
          "name": "",
          "type": "uint256[]"
        }
      ],
      "stateMutability": "view",
      "type": "function"
    },
    {
      "inputs": [],
      "name": "getTotalStudents",
      "outputs": [
        {
          "internalType": "uint256",
          "name": "",
          "type": "uint256"
        }
      ],
      "stateMutability": "view",
      "type": "function"
    },
    {
      "inputs": [
        {
          "internalType": "uint256",
          "name": "_studentId",
          "type": "uint256"
        },
        {
          "internalType": "string",
          "name": "_courseName",
          "type": "string"
        },
        {
          "internalType": "uint256",
          "name": "_grades",
          "type": "uint256"
        }
      ],
      "name": "issueCredits",
      "outputs": [
        {
          "internalType": "uint256",
          "name": "",
          "type": "uint256"
        }
      ],
      "stateMutability": "nonpayable",
      "type": "function"
    },
    {
      "inputs": [
        {
          "internalType": "uint256",
          "name": "",
          "type": "uint256"
        }
      ],
      "name": "students",
      "outputs": [
        {
          "internalType": "uint256",
          "name": "collegeuid",
          "type": "uint256"
        },
        {
          "internalType": "string",
          "name": "name",
          "type": "string"
        }
      ],
      "stateMutability": "view",
      "type": "function"
    },
    {
      "inputs": [],
      "name": "totalColleges",
      "outputs": [
        {
          "internalType": "uint256",
          "name": "",
          "type": "uint256"
        }
      ],
      "stateMutability": "view",
      "type": "function"
    },
    {
      "inputs": [],
      "name": "totalCourses",
      "outputs": [
        {
          "internalType": "uint256",
          "name": "",
          "type": "uint256"
        }
      ],
      "stateMutability": "view",
      "type": "function"
    },
    {
      "inputs": [],
      "name": "totalStudents",
      "outputs": [
        {
          "internalType": "uint256",
          "name": "",
          "type": "uint256"
        }
      ],
      "stateMutability": "view",
      "type": "function"
    }
  ],
  "bytecode": "0x608060405234801561001057600080fd5b50612614806100206000396000f3fe608060405234801561001057600080fd5b506004361061014d5760003560e01c8063610b31a6116100c357806388caebd01161007c57806388caebd01461042e57806391bbf4f31461044d57806396f979d21461047e5780639852bf8e146104b257806398bd8ef7146104d0578063f247f622146105005761014d565b8063610b31a61461032e57806364b46e181461036057806374a116381461037e578063788f0647146103ae57806386a9b364146103de57806387ac1860146104105761014d565b80633c3d4a98116101155780633c3d4a981461020c5780634a4b9e8e1461023d5780634c32d9ef1461026d5780634f43ddfa1461029e5780635308a2f4146102ce5780635645541f146102fe5761014d565b8063055f763f1461015257806306ead22e14610170578063148e0f06146101a157806314aeff1e146101bd57806328bcb51a146101ee575b600080fd5b61015a610530565b6040516101679190611893565b60405180910390f35b61018a600480360381019061018591906118ee565b61053a565b6040516101989291906119b4565b60405180910390f35b6101bb60048036038101906101b691906119e4565b6105e6565b005b6101d760048036038101906101d291906118ee565b610786565b6040516101e5929190611ae2565b60405180910390f35b6101f661089c565b6040516102039190611893565b60405180910390f35b610226600480360381019061022191906118ee565b6108a6565b604051610234929190611ae2565b60405180910390f35b610257600480360381019061025291906118ee565b6109bc565b6040516102649190611893565b60405180910390f35b610287600480360381019061028291906118ee565b6109df565b604051610295929190611c25565b60405180910390f35b6102b860048036038101906102b39190611d91565b610c3d565b6040516102c59190611893565b60405180910390f35b6102e860048036038101906102e39190611dda565b610d5d565b6040516102f59190611893565b60405180910390f35b61031860048036038101906103139190611dda565b610f54565b6040516103259190611893565b60405180910390f35b610348600480360381019061034391906118ee565b611062565b60405161035793929190611e49565b60405180910390f35b610368611125565b6040516103759190611893565b60405180910390f35b61039860048036038101906103939190611e87565b61112b565b6040516103a59190611893565b60405180910390f35b6103c860048036038101906103c391906118ee565b6111d5565b6040516103d59190611893565b60405180910390f35b6103f860048036038101906103f391906118ee565b6111f8565b60405161040793929190611ee3565b60405180910390f35b61041861132b565b6040516104259190611893565b60405180910390f35b610436611331565b604051610444929190612059565b60405180910390f35b610467600480360381019061046291906118ee565b611564565b6040516104759291906119b4565b60405180910390f35b610498600480360381019061049391906118ee565b611610565b6040516104a99594939291906120ab565b60405180910390f35b6104ba6116db565b6040516104c79190611893565b60405180910390f35b6104ea60048036038101906104e591906119e4565b6116e1565b6040516104f79190612105565b60405180910390f35b61051a600480360381019061051591906118ee565b611710565b6040516105279190611893565b60405180910390f35b6000600654905090565b60036020528060005260406000206000915090508060000154908060010180546105639061214f565b80601f016020809104026020016040519081016040528092919081815260200182805461058f9061214f565b80156105dc5780601f106105b1576101008083540402835291602001916105dc565b820191906000526020600020905b8154815290600101906020018083116105bf57829003601f168201915b5050505050905082565b60008082815260200190815260200160002060040160009054906101000a900460ff16610648576040517f08c379a000000000000000000000000000000000000000000000000000000000815260040161063f906121cd565b60405180910390fd5b60026000828152602001908152602001600020600083815260200190815260200160002060009054906101000a900460ff16156106ba576040517f08c379a00000000000000000000000000000000000000000000000000000000081526004016106b190612239565b60405180910390fd5b60036000838152602001908152602001600020600201819080600181540180825580915050600190039060005260206000200160009091909190915055600160026000838152602001908152602001600020600084815260200190815260200160002060006101000a81548160ff02191690831515021790555080827f851da06532dc0d28922c60a932bd24f90efe1464887972788812eeaf573def386003600086815260200190815260200160002060010160405161077a91906122ee565b60405180910390a35050565b60608060056000848152602001908152602001600020600101600560008581526020019081526020016000206002018180546107c19061214f565b80601f01602080910402602001604051908101604052809291908181526020018280546107ed9061214f565b801561083a5780601f1061080f5761010080835404028352916020019161083a565b820191906000526020600020905b81548152906001019060200180831161081d57829003601f168201915b505050505091508080548060200260200160405190810160405280929190818152602001828054801561088c57602002820191906000526020600020905b815481526020019060010190808311610878575b5050505050905091509150915091565b6000600454905090565b60608060056000848152602001908152602001600020600101600560008581526020019081526020016000206002018180546108e19061214f565b80601f016020809104026020016040519081016040528092919081815260200182805461090d9061214f565b801561095a5780601f1061092f5761010080835404028352916020019161095a565b820191906000526020600020905b81548152906001019060200180831161093d57829003601f168201915b50505050509150808054806020026020016040519081016040528092919081815260200182805480156109ac57602002820191906000526020600020905b815481526020019060010190808311610998575b5050505050905091509150915091565b600060056000838152602001908152602001600020600201805490509050919050565b606080600060036000858152602001908152602001600020600201805480602002602001604051908101604052809291908181526020018280548015610a4457602002820191906000526020600020905b815481526020019060010190808311610a30575b505050505090506000815167ffffffffffffffff811115610a6857610a67611c66565b5b604051908082528060200260200182016040528015610a9b57816020015b6060815260200190600190039081610a865790505b5090506000825167ffffffffffffffff811115610abb57610aba611c66565b5b604051908082528060200260200182016040528015610ae95781602001602082028036833780820191505090505b50905060005b8351811015610c2e576000848281518110610b0d57610b0c612310565b5b602002602001015190506000808281526020019081526020016000206001018054610b379061214f565b80601f0160208091040260200160405190810160405280929190818152602001828054610b639061214f565b8015610bb05780601f10610b8557610100808354040283529160200191610bb0565b820191906000526020600020905b815481529060010190602001808311610b9357829003601f168201915b5050505050848381518110610bc857610bc7612310565b5b602002602001018190525060036000898152602001908152602001600020600301600082815260200190815260200160002054838381518110610c0e57610c0d612310565b5b602002602001018181525050508080610c269061236e565b915050610aef565b50818194509450505050915091565b600060066000815480929190610c529061236e565b919050555060405180606001604052806006548152602001838152602001600067ffffffffffffffff811115610c8b57610c8a611c66565b5b604051908082528060200260200182016040528015610cb95781602001602082028036833780820191505090505b50815250600560006006548152602001908152602001600020600082015181600001556020820151816001019080519060200190610cf892919061178a565b506040820151816002019080519060200190610d15929190611810565b509050506006547fc6b4db752302eff5c16f7d7e9990a64b72c0acf6034555c8dae7b7d53e8c018583604051610d4b91906123b7565b60405180910390a26006549050919050565b6000806000905060005b6003600087815260200190815260200160002060020180549050811015610e6f5784604051602001610d999190612415565b60405160208183030381529060405280519060200120600080600360008a81526020019081526020016000206002018481548110610dda57610dd9612310565b5b90600052602060002001548152602001908152602001600020600101604051602001610e0691906124ab565b604051602081830303815290604052805190602001201415610e5c57600360008781526020019081526020016000206002018181548110610e4a57610e49612310565b5b90600052602060002001549150610e6f565b8080610e679061236e565b915050610d67565b506000811415610eb4576040517f08c379a0000000000000000000000000000000000000000000000000000000008152600401610eab9061250e565b60405180910390fd5b82600360008781526020019081526020016000206003016000838152602001908152602001600020819055507f8039e7d4ae7541b367f582b0d957682dac607796adc8f63529017dd974045d12858585600360008a815260200190815260200160002060000154604051610f2b949392919061252e565b60405180910390a160036000868152602001908152602001600020600001549150509392505050565b600060016000815480929190610f699061236e565b9190505550600080600060015481526020019081526020016000209050600154816000018190555083816001019080519060200190610fa992919061178a565b5082816002018190555084816003018190555060018160040160006101000a81548160ff021916908315150217905550600560008681526020019081526020016000206002016001549080600181540180825580915050600190039060005260206000200160009091909190915055846001547f25adedc16ea5a9d56974b09697c1a06f6b82308305f0d7b29800a4da0aca43ee868660405161104d92919061257a565b60405180910390a36001549150509392505050565b60606000806000806000868152602001908152602001600020905080600101816002015482600301548280546110979061214f565b80601f01602080910402602001604051908101604052809291908181526020018280546110c39061214f565b80156111105780601f106110e557610100808354040283529160200191611110565b820191906000526020600020905b8154815290600101906020018083116110f357829003601f168201915b50505050509250935093509350509193909250565b60065481565b6000600460008154809291906111409061236e565b919050555082600360006004548152602001908152602001600020600101908051906020019061117192919061178a565b5081600360006004548152602001908152602001600020600001819055507f7f5f4ea2b8fe7becdadbf800a6b604580d349400c43d5437b6787b57db75caf4600454846040516111c29291906119b4565b60405180910390a1600454905092915050565b600060056000838152602001908152602001600020600201805490509050919050565b60608060006003600085815260200190815260200160002060010160036000868152602001908152602001600020600201600360008781526020019081526020016000206000015482805461124c9061214f565b80601f01602080910402602001604051908101604052809291908181526020018280546112789061214f565b80156112c55780601f1061129a576101008083540402835291602001916112c5565b820191906000526020600020905b8154815290600101906020018083116112a857829003601f168201915b505050505092508180548060200260200160405190810160405280929190818152602001828054801561131757602002820191906000526020600020905b815481526020019060010190808311611303575b505050505091509250925092509193909250565b60015481565b606080600060045467ffffffffffffffff81111561135257611351611c66565b5b60405190808252806020026020018201604052801561138557816020015b60608152602001906001900390816113705790505b509050600060045467ffffffffffffffff8111156113a6576113a5611c66565b5b6040519080825280602002602001820160405280156113d957816020015b60608152602001906001900390816113c45790505b5090506000600190505b60045481116115575760036000828152602001908152602001600020600101805461140d9061214f565b80601f01602080910402602001604051908101604052809291908181526020018280546114399061214f565b80156114865780601f1061145b57610100808354040283529160200191611486565b820191906000526020600020905b81548152906001019060200180831161146957829003601f168201915b50505050508360018361149991906125aa565b815181106114aa576114a9612310565b5b60200260200101819052506003600082815260200190815260200160002060020180548060200260200160405190810160405280929190818152602001828054801561151557602002820191906000526020600020905b815481526020019060010190808311611501575b50505050508260018361152891906125aa565b8151811061153957611538612310565b5b6020026020010181905250808061154f9061236e565b9150506113e3565b5081819350935050509091565b600560205280600052604060002060009150905080600001549080600101805461158d9061214f565b80601f01602080910402602001604051908101604052809291908181526020018280546115b99061214f565b80156116065780601f106115db57610100808354040283529160200191611606565b820191906000526020600020905b8154815290600101906020018083116115e957829003601f168201915b5050505050905082565b60006020528060005260406000206000915090508060000154908060010180546116399061214f565b80601f01602080910402602001604051908101604052809291908181526020018280546116659061214f565b80156116b25780601f10611687576101008083540402835291602001916116b2565b820191906000526020600020905b81548152906001019060200180831161169557829003601f168201915b5050505050908060020154908060030154908060040160009054906101000a900460ff16905085565b60045481565b60026020528160005260406000206020528060005260406000206000915091509054906101000a900460ff1681565b600080600090506000600190505b60045481116117805760026000858152602001908152602001600020600082815260200190815260200160002060009054906101000a900460ff161561176d5781806117699061236e565b9250505b80806117789061236e565b91505061171e565b5080915050919050565b8280546117969061214f565b90600052602060002090601f0160209004810192826117b857600085556117ff565b82601f106117d157805160ff19168380011785556117ff565b828001600101855582156117ff579182015b828111156117fe5782518255916020019190600101906117e3565b5b50905061180c919061185d565b5090565b82805482825590600052602060002090810192821561184c579160200282015b8281111561184b578251825591602001919060010190611830565b5b509050611859919061185d565b5090565b5b8082111561187657600081600090555060010161185e565b5090565b6000819050919050565b61188d8161187a565b82525050565b60006020820190506118a86000830184611884565b92915050565b6000604051905090565b600080fd5b600080fd5b6118cb8161187a565b81146118d657600080fd5b50565b6000813590506118e8816118c2565b92915050565b600060208284031215611904576119036118b8565b5b6000611912848285016118d9565b91505092915050565b600081519050919050565b600082825260208201905092915050565b60005b8381101561195557808201518184015260208101905061193a565b83811115611964576000848401525b50505050565b6000601f19601f8301169050919050565b60006119868261191b565b6119908185611926565b93506119a0818560208601611937565b6119a98161196a565b840191505092915050565b60006040820190506119c96000830185611884565b81810360208301526119db818461197b565b90509392505050565b600080604083850312156119fb576119fa6118b8565b5b6000611a09858286016118d9565b9250506020611a1a858286016118d9565b9150509250929050565b600081519050919050565b600082825260208201905092915050565b6000819050602082019050919050565b611a598161187a565b82525050565b6000611a6b8383611a50565b60208301905092915050565b6000602082019050919050565b6000611a8f82611a24565b611a998185611a2f565b9350611aa483611a40565b8060005b83811015611ad5578151611abc8882611a5f565b9750611ac783611a77565b925050600181019050611aa8565b5085935050505092915050565b60006040820190508181036000830152611afc818561197b565b90508181036020830152611b108184611a84565b90509392505050565b600081519050919050565b600082825260208201905092915050565b6000819050602082019050919050565b600082825260208201905092915050565b6000611b618261191b565b611b6b8185611b45565b9350611b7b818560208601611937565b611b848161196a565b840191505092915050565b6000611b9b8383611b56565b905092915050565b6000602082019050919050565b6000611bbb82611b19565b611bc58185611b24565b935083602082028501611bd785611b35565b8060005b85811015611c135784840389528151611bf48582611b8f565b9450611bff83611ba3565b925060208a01995050600181019050611bdb565b50829750879550505050505092915050565b60006040820190508181036000830152611c3f8185611bb0565b90508181036020830152611c538184611a84565b90509392505050565b600080fd5b600080fd5b7f4e487b7100000000000000000000000000000000000000000000000000000000600052604160045260246000fd5b611c9e8261196a565b810181811067ffffffffffffffff82111715611cbd57611cbc611c66565b5b80604052505050565b6000611cd06118ae565b9050611cdc8282611c95565b919050565b600067ffffffffffffffff821115611cfc57611cfb611c66565b5b611d058261196a565b9050602081019050919050565b82818337600083830152505050565b6000611d34611d2f84611ce1565b611cc6565b905082815260208101848484011115611d5057611d4f611c61565b5b611d5b848285611d12565b509392505050565b600082601f830112611d7857611d77611c5c565b5b8135611d88848260208601611d21565b91505092915050565b600060208284031215611da757611da66118b8565b5b600082013567ffffffffffffffff811115611dc557611dc46118bd565b5b611dd184828501611d63565b91505092915050565b600080600060608486031215611df357611df26118b8565b5b6000611e01868287016118d9565b935050602084013567ffffffffffffffff811115611e2257611e216118bd565b5b611e2e86828701611d63565b9250506040611e3f868287016118d9565b9150509250925092565b60006060820190508181036000830152611e63818661197b565b9050611e726020830185611884565b611e7f6040830184611884565b949350505050565b60008060408385031215611e9e57611e9d6118b8565b5b600083013567ffffffffffffffff811115611ebc57611ebb6118bd565b5b611ec885828601611d63565b9250506020611ed9858286016118d9565b9150509250929050565b60006060820190508181036000830152611efd818661197b565b90508181036020830152611f118185611a84565b9050611f206040830184611884565b949350505050565b600081519050919050565b600082825260208201905092915050565b6000819050602082019050919050565b600082825260208201905092915050565b6000611f7082611a24565b611f7a8185611f54565b9350611f8583611a40565b8060005b83811015611fb6578151611f9d8882611a5f565b9750611fa883611a77565b925050600181019050611f89565b5085935050505092915050565b6000611fcf8383611f65565b905092915050565b6000602082019050919050565b6000611fef82611f28565b611ff98185611f33565b93508360208202850161200b85611f44565b8060005b8581101561204757848403895281516120288582611fc3565b945061203383611fd7565b925060208a0199505060018101905061200f565b50829750879550505050505092915050565b600060408201905081810360008301526120738185611bb0565b905081810360208301526120878184611fe4565b90509392505050565b60008115159050919050565b6120a581612090565b82525050565b600060a0820190506120c06000830188611884565b81810360208301526120d2818761197b565b90506120e16040830186611884565b6120ee6060830185611884565b6120fb608083018461209c565b9695505050505050565b600060208201905061211a600083018461209c565b92915050565b7f4e487b7100000000000000000000000000000000000000000000000000000000600052602260045260246000fd5b6000600282049050600182168061216757607f821691505b6020821081141561217b5761217a612120565b5b50919050565b7f436f75727365206973206e6f7420617661696c61626c65000000000000000000600082015250565b60006121b7601783611926565b91506121c282612181565b602082019050919050565b600060208201905081810360008301526121e6816121aa565b9050919050565b7f53747564656e7420697320616c726561647920656e726f6c6c65640000000000600082015250565b6000612223601b83611926565b915061222e826121ed565b602082019050919050565b6000602082019050818103600083015261225281612216565b9050919050565b60008190508160005260206000209050919050565b6000815461227b8161214f565b6122858186611926565b945060018216600081146122a057600181146122b2576122e5565b60ff19831686526020860193506122e5565b6122bb85612259565b60005b838110156122dd578154818901526001820191506020810190506122be565b808801955050505b50505092915050565b60006020820190508181036000830152612308818461226e565b905092915050565b7f4e487b7100000000000000000000000000000000000000000000000000000000600052603260045260246000fd5b7f4e487b7100000000000000000000000000000000000000000000000000000000600052601160045260246000fd5b60006123798261187a565b91507fffffffffffffffffffffffffffffffffffffffffffffffffffffffffffffffff8214156123ac576123ab61233f565b5b600182019050919050565b600060208201905081810360008301526123d1818461197b565b905092915050565b600081905092915050565b60006123ef8261191b565b6123f981856123d9565b9350612409818560208601611937565b80840191505092915050565b600061242182846123e4565b915081905092915050565b600081546124398161214f565b61244381866123d9565b9450600182166000811461245e576001811461246f576124a2565b60ff198316865281860193506124a2565b61247885612259565b60005b8381101561249a5781548189015260018201915060208101905061247b565b838801955050505b50505092915050565b60006124b7828461242c565b915081905092915050565b7f436f75727365206e6f7420666f756e6400000000000000000000000000000000600082015250565b60006124f8601083611926565b9150612503826124c2565b602082019050919050565b60006020820190508181036000830152612527816124eb565b9050919050565b60006080820190506125436000830187611884565b8181036020830152612555818661197b565b90506125646040830185611884565b6125716060830184611884565b95945050505050565b60006040820190508181036000830152612594818561197b565b90506125a36020830184611884565b9392505050565b60006125b58261187a565b91506125c08361187a565b9250828210156125d3576125d261233f565b5b82820390509291505056fea26469706673582212207d43cc98d4bf159f7c5d7bec762b72e565af4db9de5b8ac541158b6fe0ed232264736f6c634300080b0033",
  "linkReferences": {},
  "deployedLinkReferences": {}
}