{
  "_format": "hh-sol-artifact-1",
  "contractName": "PublicBlockchain",
  "sourceName": "contracts/PublicBlockchain.sol",
  "abi": [
    {
      "anonymous": false,
      "inputs": [
        {
          "indexed": true,
          "internalType": "uint256",
          "name": "collegeUid",
          "type": "uint256"
        },
        {
          "indexed": false,
          "internalType": "string",
          "name": "name",
          "type": "string"
        }
      ],
      "name": "CollegeCreated",
      "type": "event"
    },
    {
      "anonymous": false,
      "inputs": [
        {
          "indexed": true,
          "internalType": "uint256",
          "name": "courseUid",
          "type": "uint256"
        },
        {
          "indexed": false,
          "internalType": "string",
          "name": "name",
          "type": "string"
        },
        {
          "indexed": false,
          "internalType": "uint256",
          "name": "credits",
          "type": "uint256"
        },
        {
          "indexed": true,
          "internalType": "uint256",
          "name": "collegeUid",
          "type": "uint256"
        }
      ],
      "name": "CourseAdded",
      "type": "event"
    },
    {
      "anonymous": false,
      "inputs": [
        {
          "indexed": false,
          "internalType": "uint256",
          "name": "studentId",
          "type": "uint256"
        },
        {
          "indexed": false,
          "internalType": "string",
          "name": "courseName",
          "type": "string"
        },
        {
          "indexed": false,
          "internalType": "uint256",
          "name": "grades",
          "type": "uint256"
        }
      ],
      "name": "CreditsIssued",
      "type": "event"
    },
    {
      "anonymous": false,
      "inputs": [
        {
          "indexed": false,
          "internalType": "uint256",
          "name": "studentId",
          "type": "uint256"
        },
        {
          "indexed": false,
          "internalType": "string",
          "name": "name",
          "type": "string"
        }
      ],
      "name": "StudentCreated",
      "type": "event"
    },
    {
      "anonymous": false,
      "inputs": [
        {
          "indexed": true,
          "internalType": "uint256",
          "name": "studentId",
          "type": "uint256"
        },
        {
          "indexed": true,
          "internalType": "uint256",
          "name": "courseUid",
          "type": "uint256"
        },
        {
          "indexed": false,
          "internalType": "string",
          "name": "name",
          "type": "string"
        }
      ],
      "name": "StudentEnrolled",
      "type": "event"
    },
    {
      "inputs": [
        {
          "internalType": "string",
          "name": "_name",
          "type": "string"
        }
      ],
      "name": "addCollege",
      "outputs": [
        {
          "internalType": "uint256",
          "name": "",
          "type": "uint256"
        }
      ],
      "stateMutability": "nonpayable",
      "type": "function"
    },
    {
      "inputs": [
        {
          "internalType": "uint256",
          "name": "_collegeUid",
          "type": "uint256"
        },
        {
          "internalType": "string",
          "name": "_name",
          "type": "string"
        },
        {
          "internalType": "uint256",
          "name": "_credits",
          "type": "uint256"
        }
      ],
      "name": "addCourse",
      "outputs": [
        {
          "internalType": "uint256",
          "name": "",
          "type": "uint256"
        }
      ],
      "stateMutability": "nonpayable",
      "type": "function"
    },
    {
      "inputs": [
        {
          "internalType": "uint256",
          "name": "",
          "type": "uint256"
        }
      ],
      "name": "colleges",
      "outputs": [
        {
          "internalType": "uint256",
          "name": "collegeUid",
          "type": "uint256"
        },
        {
          "internalType": "string",
          "name": "name",
          "type": "string"
        }
      ],
      "stateMutability": "view",
      "type": "function"
    },
    {
      "inputs": [
        {
          "internalType": "uint256",
          "name": "",
          "type": "uint256"
        }
      ],
      "name": "courses",
      "outputs": [
        {
          "internalType": "uint256",
          "name": "courseUid",
          "type": "uint256"
        },
        {
          "internalType": "string",
          "name": "name",
          "type": "string"
        },
        {
          "internalType": "uint256",
          "name": "credits",
          "type": "uint256"
        },
        {
          "internalType": "uint256",
          "name": "collegeUid",
          "type": "uint256"
        },
        {
          "internalType": "bool",
          "name": "available",
          "type": "bool"
        }
      ],
      "stateMutability": "view",
      "type": "function"
    },
    {
      "inputs": [
        {
          "internalType": "string",
          "name": "_name",
          "type": "string"
        }
      ],
      "name": "createStudent",
      "outputs": [
        {
          "internalType": "uint256",
          "name": "",
          "type": "uint256"
        }
      ],
      "stateMutability": "nonpayable",
      "type": "function"
    },
    {
      "inputs": [
        {
          "internalType": "uint256",
          "name": "_studentId",
          "type": "uint256"
        },
        {
          "internalType": "uint256",
          "name": "_courseUid",
          "type": "uint256"
        }
      ],
      "name": "enrollStudent",
      "outputs": [],
      "stateMutability": "nonpayable",
      "type": "function"
    },
    {
      "inputs": [
        {
          "internalType": "uint256",
          "name": "",
          "type": "uint256"
        },
        {
          "internalType": "uint256",
          "name": "",
          "type": "uint256"
        }
      ],
      "name": "enrolledStudents",
      "outputs": [
        {
          "internalType": "bool",
          "name": "",
          "type": "bool"
        }
      ],
      "stateMutability": "view",
      "type": "function"
    },
    {
      "inputs": [],
      "name": "getAllStudentDetails",
      "outputs": [
        {
          "internalType": "string[]",
          "name": "",
          "type": "string[]"
        },
        {
          "internalType": "uint256[][]",
          "name": "",
          "type": "uint256[][]"
        }
      ],
      "stateMutability": "view",
      "type": "function"
    },
    {
      "inputs": [
        {
          "internalType": "uint256",
          "name": "_collegeUid",
          "type": "uint256"
        }
      ],
      "name": "getCollegeDetails",
      "outputs": [
        {
          "internalType": "string",
          "name": "",
          "type": "string"
        },
        {
          "internalType": "uint256[]",
          "name": "",
          "type": "uint256[]"
        }
      ],
      "stateMutability": "view",
      "type": "function"
    },
    {
      "inputs": [
        {
          "internalType": "uint256",
          "name": "_courseUid",
          "type": "uint256"
        }
      ],
      "name": "getCourseDetails",
      "outputs": [
        {
          "internalType": "string",
          "name": "",
          "type": "string"
        },
        {
          "internalType": "uint256",
          "name": "",
          "type": "uint256"
        },
        {
          "internalType": "uint256",
          "name": "",
          "type": "uint256"
        }
      ],
      "stateMutability": "view",
      "type": "function"
    },
    {
      "inputs": [
        {
          "internalType": "uint256",
          "name": "_collegeUid",
          "type": "uint256"
        }
      ],
      "name": "getInstituteDetails",
      "outputs": [
        {
          "internalType": "string",
          "name": "",
          "type": "string"
        },
        {
          "internalType": "uint256[]",
          "name": "",
          "type": "uint256[]"
        }
      ],
      "stateMutability": "view",
      "type": "function"
    },
    {
      "inputs": [],
      "name": "getNumberOfColleges",
      "outputs": [
        {
          "internalType": "uint256",
          "name": "",
          "type": "uint256"
        }
      ],
      "stateMutability": "view",
      "type": "function"
    },
    {
      "inputs": [
        {
          "internalType": "uint256",
          "name": "_collegeUid",
          "type": "uint256"
        }
      ],
      "name": "getNumberOfCoursesByCollege",
      "outputs": [
        {
          "internalType": "uint256",
          "name": "",
          "type": "uint256"
        }
      ],
      "stateMutability": "view",
      "type": "function"
    },
    {
      "inputs": [
        {
          "internalType": "uint256",
          "name": "_collegeUid",
          "type": "uint256"
        }
      ],
      "name": "getNumberOfCoursesByInstitute",
      "outputs": [
        {
          "internalType": "uint256",
          "name": "",
          "type": "uint256"
        }
      ],
      "stateMutability": "view",
      "type": "function"
    },
    {
      "inputs": [
        {
          "internalType": "uint256",
          "name": "_courseUid",
          "type": "uint256"
        }
      ],
      "name": "getNumberOfStudentsEnrolled",
      "outputs": [
        {
          "internalType": "uint256",
          "name": "",
          "type": "uint256"
        }
      ],
      "stateMutability": "view",
      "type": "function"
    },
    {
      "inputs": [
        {
          "internalType": "uint256",
          "name": "_studentId",
          "type": "uint256"
        }
      ],
      "name": "getStudentDetails",
      "outputs": [
        {
          "internalType": "string",
          "name": "",
          "type": "string"
        },
        {
          "internalType": "uint256[]",
          "name": "",
          "type": "uint256[]"
        }
      ],
      "stateMutability": "view",
      "type": "function"
    },
    {
      "inputs": [
        {
          "internalType": "uint256",
          "name": "_studentId",
          "type": "uint256"
        }
      ],
      "name": "getStudentGrades",
      "outputs": [
        {
          "internalType": "string[]",
          "name": "",
          "type": "string[]"
        },
        {
          "internalType": "uint256[]",
          "name": "",
          "type": "uint256[]"
        }
      ],
      "stateMutability": "view",
      "type": "function"
    },
    {
      "inputs": [],
      "name": "getTotalStudents",
      "outputs": [
        {
          "internalType": "uint256",
          "name": "",
          "type": "uint256"
        }
      ],
      "stateMutability": "view",
      "type": "function"
    },
    {
      "inputs": [
        {
          "internalType": "uint256",
          "name": "_studentId",
          "type": "uint256"
        },
        {
          "internalType": "string",
          "name": "_courseName",
          "type": "string"
        },
        {
          "internalType": "uint256",
          "name": "_grades",
          "type": "uint256"
        }
      ],
      "name": "issueCredits",
      "outputs": [],
      "stateMutability": "nonpayable",
      "type": "function"
    },
    {
      "inputs": [
        {
          "internalType": "uint256",
          "name": "",
          "type": "uint256"
        }
      ],
      "name": "students",
      "outputs": [
        {
          "internalType": "string",
          "name": "name",
          "type": "string"
        }
      ],
      "stateMutability": "view",
      "type": "function"
    },
    {
      "inputs": [],
      "name": "totalColleges",
      "outputs": [
        {
          "internalType": "uint256",
          "name": "",
          "type": "uint256"
        }
      ],
      "stateMutability": "view",
      "type": "function"
    },
    {
      "inputs": [],
      "name": "totalCourses",
      "outputs": [
        {
          "internalType": "uint256",
          "name": "",
          "type": "uint256"
        }
      ],
      "stateMutability": "view",
      "type": "function"
    },
    {
      "inputs": [],
      "name": "totalStudents",
      "outputs": [
        {
          "internalType": "uint256",
          "name": "",
          "type": "uint256"
        }
      ],
      "stateMutability": "view",
      "type": "function"
    }
  ],
  "bytecode": "0x608060405234801561001057600080fd5b506124d5806100206000396000f3fe608060405234801561001057600080fd5b506004361061014d5760003560e01c8063610b31a6116100c357806391bbf4f31161007c57806391bbf4f31461040757806396f979d2146104385780639852bf8e1461046c57806398bd8ef71461048a578063f247f622146104ba578063f80bc664146104ea5761014d565b8063610b31a61461031957806364b46e181461034b578063788f06471461036957806386a9b3641461039957806387ac1860146103ca57806388caebd0146103e85761014d565b80633c3d4a98116101155780633c3d4a981461020b5780634a4b9e8e1461023c5780634c32d9ef1461026c5780634f43ddfa1461029d5780635308a2f4146102cd5780635645541f146102e95761014d565b8063055f763f1461015257806306ead22e14610170578063148e0f06146101a057806314aeff1e146101bc57806328bcb51a146101ed575b600080fd5b61015a61051a565b6040516101679190611803565b60405180910390f35b61018a6004803603810190610185919061185e565b610524565b6040516101979190611924565b60405180910390f35b6101ba60048036038101906101b59190611946565b6105ca565b005b6101d660048036038101906101d1919061185e565b61076a565b6040516101e4929190611a44565b60405180910390f35b6101f5610880565b6040516102029190611803565b60405180910390f35b6102256004803603810190610220919061185e565b61088a565b604051610233929190611a44565b60405180910390f35b6102566004803603810190610251919061185e565b6109a0565b6040516102639190611803565b60405180910390f35b6102866004803603810190610281919061185e565b6109c3565b604051610294929190611b87565b60405180910390f35b6102b760048036038101906102b29190611cf3565b610c21565b6040516102c49190611803565b60405180910390f35b6102e760048036038101906102e29190611d3c565b610d41565b005b61030360048036038101906102fe9190611d3c565b610eff565b6040516103109190611803565b60405180910390f35b610333600480360381019061032e919061185e565b61100d565b60405161034293929190611dab565b60405180910390f35b6103536110d0565b6040516103609190611803565b60405180910390f35b610383600480360381019061037e919061185e565b6110d6565b6040516103909190611803565b60405180910390f35b6103b360048036038101906103ae919061185e565b6110f9565b6040516103c1929190611a44565b60405180910390f35b6103d261120f565b6040516103df9190611803565b60405180910390f35b6103f0611215565b6040516103fe929190611f1a565b60405180910390f35b610421600480360381019061041c919061185e565b611448565b60405161042f929190611f51565b60405180910390f35b610452600480360381019061044d919061185e565b6114f4565b604051610463959493929190611f9c565b60405180910390f35b6104746115bf565b6040516104819190611803565b60405180910390f35b6104a4600480360381019061049f9190611946565b6115c5565b6040516104b19190611ff6565b60405180910390f35b6104d460048036038101906104cf919061185e565b6115f4565b6040516104e19190611803565b60405180910390f35b61050460048036038101906104ff9190611cf3565b61166e565b6040516105119190611803565b60405180910390f35b6000600654905090565b600360205280600052604060002060009150905080600001805461054790612040565b80601f016020809104026020016040519081016040528092919081815260200182805461057390612040565b80156105c05780601f10610595576101008083540402835291602001916105c0565b820191906000526020600020905b8154815290600101906020018083116105a357829003601f168201915b5050505050905081565b60008082815260200190815260200160002060040160009054906101000a900460ff1661062c576040517f08c379a0000000000000000000000000000000000000000000000000000000008152600401610623906120be565b60405180910390fd5b60026000828152602001908152602001600020600083815260200190815260200160002060009054906101000a900460ff161561069e576040517f08c379a00000000000000000000000000000000000000000000000000000000081526004016106959061212a565b60405180910390fd5b60036000838152602001908152602001600020600101819080600181540180825580915050600190039060005260206000200160009091909190915055600160026000838152602001908152602001600020600084815260200190815260200160002060006101000a81548160ff02191690831515021790555080827f851da06532dc0d28922c60a932bd24f90efe1464887972788812eeaf573def386003600086815260200190815260200160002060000160405161075e91906121df565b60405180910390a35050565b60608060056000848152602001908152602001600020600101600560008581526020019081526020016000206002018180546107a590612040565b80601f01602080910402602001604051908101604052809291908181526020018280546107d190612040565b801561081e5780601f106107f35761010080835404028352916020019161081e565b820191906000526020600020905b81548152906001019060200180831161080157829003601f168201915b505050505091508080548060200260200160405190810160405280929190818152602001828054801561087057602002820191906000526020600020905b81548152602001906001019080831161085c575b5050505050905091509150915091565b6000600454905090565b60608060056000848152602001908152602001600020600101600560008581526020019081526020016000206002018180546108c590612040565b80601f01602080910402602001604051908101604052809291908181526020018280546108f190612040565b801561093e5780601f106109135761010080835404028352916020019161093e565b820191906000526020600020905b81548152906001019060200180831161092157829003601f168201915b505050505091508080548060200260200160405190810160405280929190818152602001828054801561099057602002820191906000526020600020905b81548152602001906001019080831161097c575b5050505050905091509150915091565b600060056000838152602001908152602001600020600201805490509050919050565b606080600060036000858152602001908152602001600020600101805480602002602001604051908101604052809291908181526020018280548015610a2857602002820191906000526020600020905b815481526020019060010190808311610a14575b505050505090506000815167ffffffffffffffff811115610a4c57610a4b611bc8565b5b604051908082528060200260200182016040528015610a7f57816020015b6060815260200190600190039081610a6a5790505b5090506000825167ffffffffffffffff811115610a9f57610a9e611bc8565b5b604051908082528060200260200182016040528015610acd5781602001602082028036833780820191505090505b50905060005b8351811015610c12576000848281518110610af157610af0612201565b5b602002602001015190506000808281526020019081526020016000206001018054610b1b90612040565b80601f0160208091040260200160405190810160405280929190818152602001828054610b4790612040565b8015610b945780601f10610b6957610100808354040283529160200191610b94565b820191906000526020600020905b815481529060010190602001808311610b7757829003601f168201915b5050505050848381518110610bac57610bab612201565b5b602002602001018190525060036000898152602001908152602001600020600201600082815260200190815260200160002054838381518110610bf257610bf1612201565b5b602002602001018181525050508080610c0a9061225f565b915050610ad3565b50818194509450505050915091565b600060066000815480929190610c369061225f565b919050555060405180606001604052806006548152602001838152602001600067ffffffffffffffff811115610c6f57610c6e611bc8565b5b604051908082528060200260200182016040528015610c9d5781602001602082028036833780820191505090505b50815250600560006006548152602001908152602001600020600082015181600001556020820151816001019080519060200190610cdc9291906116fa565b506040820151816002019080519060200190610cf9929190611780565b509050506006547fc6b4db752302eff5c16f7d7e9990a64b72c0acf6034555c8dae7b7d53e8c018583604051610d2f9190611924565b60405180910390a26006549050919050565b6000805b6003600086815260200190815260200160002060010180549050811015610e4d5783604051602001610d7791906122e4565b60405160208183030381529060405280519060200120600080600360008981526020019081526020016000206001018481548110610db857610db7612201565b5b90600052602060002001548152602001908152602001600020600101604051602001610de4919061237a565b604051602081830303815290604052805190602001201415610e3a57600360008681526020019081526020016000206001018181548110610e2857610e27612201565b5b90600052602060002001549150610e4d565b8080610e459061225f565b915050610d45565b506000811415610e92576040517f08c379a0000000000000000000000000000000000000000000000000000000008152600401610e89906123dd565b60405180910390fd5b81600360008681526020019081526020016000206002016000838152602001908152602001600020819055507f53fe00aae220f9523edda3e9de7a39b131c4f5347e223ee4d088493df94a8a89848484604051610ef1939291906123fd565b60405180910390a150505050565b600060016000815480929190610f149061225f565b9190505550600080600060015481526020019081526020016000209050600154816000018190555083816001019080519060200190610f549291906116fa565b5082816002018190555084816003018190555060018160040160006101000a81548160ff021916908315150217905550600560008681526020019081526020016000206002016001549080600181540180825580915050600190039060005260206000200160009091909190915055846001547f25adedc16ea5a9d56974b09697c1a06f6b82308305f0d7b29800a4da0aca43ee8686604051610ff892919061243b565b60405180910390a36001549150509392505050565b606060008060008060008681526020019081526020016000209050806001018160020154826003015482805461104290612040565b80601f016020809104026020016040519081016040528092919081815260200182805461106e90612040565b80156110bb5780601f10611090576101008083540402835291602001916110bb565b820191906000526020600020905b81548152906001019060200180831161109e57829003601f168201915b50505050509250935093509350509193909250565b60065481565b600060056000838152602001908152602001600020600201805490509050919050565b606080600360008481526020019081526020016000206000016003600085815260200190815260200160002060010181805461113490612040565b80601f016020809104026020016040519081016040528092919081815260200182805461116090612040565b80156111ad5780601f10611182576101008083540402835291602001916111ad565b820191906000526020600020905b81548152906001019060200180831161119057829003601f168201915b50505050509150808054806020026020016040519081016040528092919081815260200182805480156111ff57602002820191906000526020600020905b8154815260200190600101908083116111eb575b5050505050905091509150915091565b60015481565b606080600060045467ffffffffffffffff81111561123657611235611bc8565b5b60405190808252806020026020018201604052801561126957816020015b60608152602001906001900390816112545790505b509050600060045467ffffffffffffffff81111561128a57611289611bc8565b5b6040519080825280602002602001820160405280156112bd57816020015b60608152602001906001900390816112a85790505b5090506000600190505b600454811161143b576003600082815260200190815260200160002060000180546112f190612040565b80601f016020809104026020016040519081016040528092919081815260200182805461131d90612040565b801561136a5780601f1061133f5761010080835404028352916020019161136a565b820191906000526020600020905b81548152906001019060200180831161134d57829003601f168201915b50505050508360018361137d919061246b565b8151811061138e5761138d612201565b5b6020026020010181905250600360008281526020019081526020016000206001018054806020026020016040519081016040528092919081815260200182805480156113f957602002820191906000526020600020905b8154815260200190600101908083116113e5575b50505050508260018361140c919061246b565b8151811061141d5761141c612201565b5b602002602001018190525080806114339061225f565b9150506112c7565b5081819350935050509091565b600560205280600052604060002060009150905080600001549080600101805461147190612040565b80601f016020809104026020016040519081016040528092919081815260200182805461149d90612040565b80156114ea5780601f106114bf576101008083540402835291602001916114ea565b820191906000526020600020905b8154815290600101906020018083116114cd57829003601f168201915b5050505050905082565b600060205280600052604060002060009150905080600001549080600101805461151d90612040565b80601f016020809104026020016040519081016040528092919081815260200182805461154990612040565b80156115965780601f1061156b57610100808354040283529160200191611596565b820191906000526020600020905b81548152906001019060200180831161157957829003601f168201915b5050505050908060020154908060030154908060040160009054906101000a900460ff16905085565b60045481565b60026020528160005260406000206020528060005260406000206000915091509054906101000a900460ff1681565b600080600090506000600190505b60045481116116645760026000858152602001908152602001600020600082815260200190815260200160002060009054906101000a900460ff161561165157818061164d9061225f565b9250505b808061165c9061225f565b915050611602565b5080915050919050565b6000600460008154809291906116839061225f565b91905055508160036000600454815260200190815260200160002060000190805190602001906116b49291906116fa565b507f7f5f4ea2b8fe7becdadbf800a6b604580d349400c43d5437b6787b57db75caf4600454836040516116e8929190611f51565b60405180910390a16004549050919050565b82805461170690612040565b90600052602060002090601f016020900481019282611728576000855561176f565b82601f1061174157805160ff191683800117855561176f565b8280016001018555821561176f579182015b8281111561176e578251825591602001919060010190611753565b5b50905061177c91906117cd565b5090565b8280548282559060005260206000209081019282156117bc579160200282015b828111156117bb5782518255916020019190600101906117a0565b5b5090506117c991906117cd565b5090565b5b808211156117e65760008160009055506001016117ce565b5090565b6000819050919050565b6117fd816117ea565b82525050565b600060208201905061181860008301846117f4565b92915050565b6000604051905090565b600080fd5b600080fd5b61183b816117ea565b811461184657600080fd5b50565b60008135905061185881611832565b92915050565b60006020828403121561187457611873611828565b5b600061188284828501611849565b91505092915050565b600081519050919050565b600082825260208201905092915050565b60005b838110156118c55780820151818401526020810190506118aa565b838111156118d4576000848401525b50505050565b6000601f19601f8301169050919050565b60006118f68261188b565b6119008185611896565b93506119108185602086016118a7565b611919816118da565b840191505092915050565b6000602082019050818103600083015261193e81846118eb565b905092915050565b6000806040838503121561195d5761195c611828565b5b600061196b85828601611849565b925050602061197c85828601611849565b9150509250929050565b600081519050919050565b600082825260208201905092915050565b6000819050602082019050919050565b6119bb816117ea565b82525050565b60006119cd83836119b2565b60208301905092915050565b6000602082019050919050565b60006119f182611986565b6119fb8185611991565b9350611a06836119a2565b8060005b83811015611a37578151611a1e88826119c1565b9750611a29836119d9565b925050600181019050611a0a565b5085935050505092915050565b60006040820190508181036000830152611a5e81856118eb565b90508181036020830152611a7281846119e6565b90509392505050565b600081519050919050565b600082825260208201905092915050565b6000819050602082019050919050565b600082825260208201905092915050565b6000611ac38261188b565b611acd8185611aa7565b9350611add8185602086016118a7565b611ae6816118da565b840191505092915050565b6000611afd8383611ab8565b905092915050565b6000602082019050919050565b6000611b1d82611a7b565b611b278185611a86565b935083602082028501611b3985611a97565b8060005b85811015611b755784840389528151611b568582611af1565b9450611b6183611b05565b925060208a01995050600181019050611b3d565b50829750879550505050505092915050565b60006040820190508181036000830152611ba18185611b12565b90508181036020830152611bb581846119e6565b90509392505050565b600080fd5b600080fd5b7f4e487b7100000000000000000000000000000000000000000000000000000000600052604160045260246000fd5b611c00826118da565b810181811067ffffffffffffffff82111715611c1f57611c1e611bc8565b5b80604052505050565b6000611c3261181e565b9050611c3e8282611bf7565b919050565b600067ffffffffffffffff821115611c5e57611c5d611bc8565b5b611c67826118da565b9050602081019050919050565b82818337600083830152505050565b6000611c96611c9184611c43565b611c28565b905082815260208101848484011115611cb257611cb1611bc3565b5b611cbd848285611c74565b509392505050565b600082601f830112611cda57611cd9611bbe565b5b8135611cea848260208601611c83565b91505092915050565b600060208284031215611d0957611d08611828565b5b600082013567ffffffffffffffff811115611d2757611d2661182d565b5b611d3384828501611cc5565b91505092915050565b600080600060608486031215611d5557611d54611828565b5b6000611d6386828701611849565b935050602084013567ffffffffffffffff811115611d8457611d8361182d565b5b611d9086828701611cc5565b9250506040611da186828701611849565b9150509250925092565b60006060820190508181036000830152611dc581866118eb565b9050611dd460208301856117f4565b611de160408301846117f4565b949350505050565b600081519050919050565b600082825260208201905092915050565b6000819050602082019050919050565b600082825260208201905092915050565b6000611e3182611986565b611e3b8185611e15565b9350611e46836119a2565b8060005b83811015611e77578151611e5e88826119c1565b9750611e69836119d9565b925050600181019050611e4a565b5085935050505092915050565b6000611e908383611e26565b905092915050565b6000602082019050919050565b6000611eb082611de9565b611eba8185611df4565b935083602082028501611ecc85611e05565b8060005b85811015611f085784840389528151611ee98582611e84565b9450611ef483611e98565b925060208a01995050600181019050611ed0565b50829750879550505050505092915050565b60006040820190508181036000830152611f348185611b12565b90508181036020830152611f488184611ea5565b90509392505050565b6000604082019050611f6660008301856117f4565b8181036020830152611f7881846118eb565b90509392505050565b60008115159050919050565b611f9681611f81565b82525050565b600060a082019050611fb160008301886117f4565b8181036020830152611fc381876118eb565b9050611fd260408301866117f4565b611fdf60608301856117f4565b611fec6080830184611f8d565b9695505050505050565b600060208201905061200b6000830184611f8d565b92915050565b7f4e487b7100000000000000000000000000000000000000000000000000000000600052602260045260246000fd5b6000600282049050600182168061205857607f821691505b6020821081141561206c5761206b612011565b5b50919050565b7f436f75727365206973206e6f7420617661696c61626c65000000000000000000600082015250565b60006120a8601783611896565b91506120b382612072565b602082019050919050565b600060208201905081810360008301526120d78161209b565b9050919050565b7f53747564656e7420697320616c726561647920656e726f6c6c65640000000000600082015250565b6000612114601b83611896565b915061211f826120de565b602082019050919050565b6000602082019050818103600083015261214381612107565b9050919050565b60008190508160005260206000209050919050565b6000815461216c81612040565b6121768186611896565b9450600182166000811461219157600181146121a3576121d6565b60ff19831686526020860193506121d6565b6121ac8561214a565b60005b838110156121ce578154818901526001820191506020810190506121af565b808801955050505b50505092915050565b600060208201905081810360008301526121f9818461215f565b905092915050565b7f4e487b7100000000000000000000000000000000000000000000000000000000600052603260045260246000fd5b7f4e487b7100000000000000000000000000000000000000000000000000000000600052601160045260246000fd5b600061226a826117ea565b91507fffffffffffffffffffffffffffffffffffffffffffffffffffffffffffffffff82141561229d5761229c612230565b5b600182019050919050565b600081905092915050565b60006122be8261188b565b6122c881856122a8565b93506122d88185602086016118a7565b80840191505092915050565b60006122f082846122b3565b915081905092915050565b6000815461230881612040565b61231281866122a8565b9450600182166000811461232d576001811461233e57612371565b60ff19831686528186019350612371565b6123478561214a565b60005b838110156123695781548189015260018201915060208101905061234a565b838801955050505b50505092915050565b600061238682846122fb565b915081905092915050565b7f436f75727365206e6f7420666f756e6400000000000000000000000000000000600082015250565b60006123c7601083611896565b91506123d282612391565b602082019050919050565b600060208201905081810360008301526123f6816123ba565b9050919050565b600060608201905061241260008301866117f4565b818103602083015261242481856118eb565b905061243360408301846117f4565b949350505050565b6000604082019050818103600083015261245581856118eb565b905061246460208301846117f4565b9392505050565b6000612476826117ea565b9150612481836117ea565b92508282101561249457612493612230565b5b82820390509291505056fea2646970667358221220af72669a597e5143ce2295d5b6720f406a2244f62ce623ccac42c19154c18eaf64736f6c634300080b0033",
  "linkReferences": {},
  "deployedLinkReferences": {}
}