{
  "_format": "hh-sol-artifact-1",
  "contractName": "PublicBlockchain",
  "sourceName": "contracts/PublicBlockchain.sol",
  "abi": [
    {
      "inputs": [],
      "stateMutability": "nonpayable",
      "type": "constructor"
    },
    {
      "anonymous": false,
      "inputs": [
        {
          "indexed": true,
          "internalType": "uint256",
          "name": "courseId",
          "type": "uint256"
        },
        {
          "indexed": false,
          "internalType": "string",
          "name": "name",
          "type": "string"
        },
        {
          "indexed": false,
          "internalType": "uint256",
          "name": "credits",
          "type": "uint256"
        },
        {
          "indexed": true,
          "internalType": "uint256",
          "name": "collegeUid",
          "type": "uint256"
        }
      ],
      "name": "CourseAdded",
      "type": "event"
    },
    {
      "anonymous": false,
      "inputs": [
        {
          "indexed": false,
          "internalType": "uint256",
          "name": "studentUid",
          "type": "uint256"
        },
        {
          "indexed": false,
          "internalType": "uint256",
          "name": "semester",
          "type": "uint256"
        },
        {
          "indexed": false,
          "internalType": "string",
          "name": "courseName",
          "type": "string"
        },
        {
          "indexed": false,
          "internalType": "uint256",
          "name": "grades",
          "type": "uint256"
        }
      ],
      "name": "CreditsIssued",
      "type": "event"
    },
    {
      "anonymous": false,
      "inputs": [
        {
          "indexed": true,
          "internalType": "uint256",
          "name": "studentUid",
          "type": "uint256"
        },
        {
          "indexed": true,
          "internalType": "uint256",
          "name": "courseId",
          "type": "uint256"
        }
      ],
      "name": "StudentEnrolled",
      "type": "event"
    },
    {
      "inputs": [
        {
          "internalType": "uint256",
          "name": "_collegeUid",
          "type": "uint256"
        },
        {
          "internalType": "string",
          "name": "_name",
          "type": "string"
        },
        {
          "internalType": "uint256",
          "name": "_credits",
          "type": "uint256"
        }
      ],
      "name": "addCourse",
      "outputs": [],
      "stateMutability": "nonpayable",
      "type": "function"
    },
    {
      "inputs": [
        {
          "internalType": "uint256",
          "name": "_collegeUid",
          "type": "uint256"
        }
      ],
      "name": "authorizeCollege",
      "outputs": [],
      "stateMutability": "nonpayable",
      "type": "function"
    },
    {
      "inputs": [
        {
          "internalType": "uint256",
          "name": "",
          "type": "uint256"
        }
      ],
      "name": "authorizedColleges",
      "outputs": [
        {
          "internalType": "bool",
          "name": "",
          "type": "bool"
        }
      ],
      "stateMutability": "view",
      "type": "function"
    },
    {
      "inputs": [
        {
          "internalType": "uint256",
          "name": "",
          "type": "uint256"
        }
      ],
      "name": "courses",
      "outputs": [
        {
          "internalType": "uint256",
          "name": "courseId",
          "type": "uint256"
        },
        {
          "internalType": "string",
          "name": "name",
          "type": "string"
        },
        {
          "internalType": "uint256",
          "name": "credits",
          "type": "uint256"
        },
        {
          "internalType": "uint256",
          "name": "collegeUid",
          "type": "uint256"
        },
        {
          "internalType": "bool",
          "name": "available",
          "type": "bool"
        }
      ],
      "stateMutability": "view",
      "type": "function"
    },
    {
      "inputs": [
        {
          "internalType": "uint256",
          "name": "_studentUid",
          "type": "uint256"
        },
        {
          "internalType": "uint256",
          "name": "_courseId",
          "type": "uint256"
        }
      ],
      "name": "enrollStudent",
      "outputs": [],
      "stateMutability": "nonpayable",
      "type": "function"
    },
    {
      "inputs": [
        {
          "internalType": "uint256",
          "name": "",
          "type": "uint256"
        },
        {
          "internalType": "uint256",
          "name": "",
          "type": "uint256"
        }
      ],
      "name": "enrolledStudents",
      "outputs": [
        {
          "internalType": "bool",
          "name": "",
          "type": "bool"
        }
      ],
      "stateMutability": "view",
      "type": "function"
    },
    {
      "inputs": [
        {
          "internalType": "uint256",
          "name": "_courseId",
          "type": "uint256"
        }
      ],
      "name": "getEnrolledStudents",
      "outputs": [
        {
          "internalType": "uint256[]",
          "name": "",
          "type": "uint256[]"
        }
      ],
      "stateMutability": "view",
      "type": "function"
    },
    {
      "inputs": [
        {
          "internalType": "uint256",
          "name": "_courseId",
          "type": "uint256"
        }
      ],
      "name": "getNumberOfStudents",
      "outputs": [
        {
          "internalType": "uint256",
          "name": "",
          "type": "uint256"
        }
      ],
      "stateMutability": "view",
      "type": "function"
    },
    {
      "inputs": [
        {
          "internalType": "uint256",
          "name": "_courseId",
          "type": "uint256"
        },
        {
          "internalType": "uint256",
          "name": "_studentUid",
          "type": "uint256"
        }
      ],
      "name": "getStudentInfo",
      "outputs": [
        {
          "internalType": "uint256",
          "name": "",
          "type": "uint256"
        },
        {
          "internalType": "string",
          "name": "",
          "type": "string"
        }
      ],
      "stateMutability": "view",
      "type": "function"
    },
    {
      "inputs": [
        {
          "internalType": "uint256",
          "name": "_studentUid",
          "type": "uint256"
        },
        {
          "internalType": "string",
          "name": "_courseName",
          "type": "string"
        },
        {
          "internalType": "uint256",
          "name": "_semester",
          "type": "uint256"
        },
        {
          "internalType": "uint256",
          "name": "_credits",
          "type": "uint256"
        }
      ],
      "name": "issueCredits",
      "outputs": [],
      "stateMutability": "nonpayable",
      "type": "function"
    },
    {
      "inputs": [],
      "name": "totalCourses",
      "outputs": [
        {
          "internalType": "uint256",
          "name": "",
          "type": "uint256"
        }
      ],
      "stateMutability": "view",
      "type": "function"
    }
  ],
  "bytecode": "0x608060405234801561001057600080fd5b506113d6806100206000396000f3fe608060405234801561001057600080fd5b50600436106100a85760003560e01c80636ec9e3f4116100715780636ec9e3f41461017657806387ac18601461019257806396f979d2146101b057806398bd8ef7146101e4578063c91aacc414610214578063f89c98a114610244576100a8565b806296c691146100ad578063148e0f06146100dd57806322639e63146100f95780635645541f146101295780636df34c9314610145575b600080fd5b6100c760048036038101906100c29190610a48565b610260565b6040516100d49190610a90565b60405180910390f35b6100f760048036038101906100f29190610aab565b610280565b005b610113600480360381019061010e9190610a48565b6103c3565b6040516101209190610afa565b60405180910390f35b610143600480360381019061013e9190610c5b565b61043a565b005b61015f600480360381019061015a9190610aab565b610562565b60405161016d929190610d52565b60405180910390f35b610190600480360381019061018b9190610a48565b61067b565b005b61019a6106aa565b6040516101a79190610afa565b60405180910390f35b6101ca60048036038101906101c59190610a48565b6106b0565b6040516101db959493929190610d82565b60405180910390f35b6101fe60048036038101906101f99190610aab565b61077b565b60405161020b9190610a90565b60405180910390f35b61022e60048036038101906102299190610a48565b6107aa565b60405161023b9190610e9a565b60405180910390f35b61025e60048036038101906102599190610ebc565b61088d565b005b60026020528060005260406000206000915054906101000a900460ff1681565b60008082815260200190815260200160002060040160009054906101000a900460ff166102e2576040517f08c379a00000000000000000000000000000000000000000000000000000000081526004016102d990610f8b565b60405180910390fd5b60036000828152602001908152602001600020600083815260200190815260200160002060009054906101000a900460ff1615610354576040517f08c379a000000000000000000000000000000000000000000000000000000000815260040161034b90610ff7565b60405180910390fd5b600160036000838152602001908152602001600020600084815260200190815260200160002060006101000a81548160ff02191690831515021790555080827fbb7f2f17e6d564d808dd9db3fdb4eef5004a9685940a349d866758ab359c29f060405160405180910390a35050565b6000806000905060005b6001548110156104305760036000858152602001908152602001600020600082815260200190815260200160002060009054906101000a900460ff161561041d57818061041990611046565b9250505b808061042890611046565b9150506103cd565b5080915050919050565b826002600082815260200190815260200160002060009054906101000a900460ff1661049b576040517f08c379a000000000000000000000000000000000000000000000000000000000815260040161049290611101565b60405180910390fd5b600160008154809291906104ae90611046565b91905055506000806000600154815260200190815260200160002090506001548160000181905550838160010190805190602001906104ee92919061095b565b5082816002018190555084816003018190555060018160040160006101000a81548160ff021916908315150217905550846001547f25adedc16ea5a9d56974b09697c1a06f6b82308305f0d7b29800a4da0aca43ee8686604051610553929190611121565b60405180910390a35050505050565b6000606060036000858152602001908152602001600020600084815260200190815260200160002060009054906101000a900460ff166105d7576040517f08c379a00000000000000000000000000000000000000000000000000000000081526004016105ce906111c3565b60405180910390fd5b6000730165878a594ca255338adfa4d48449f69242eb8f90508073ffffffffffffffffffffffffffffffffffffffff166365a81d7d856040518263ffffffff1660e01b81526004016106299190610afa565b600060405180830381865afa158015610646573d6000803e3d6000fd5b505050506040513d6000823e3d601f19601f8201168201806040525081019061066f9190611268565b92509250509250929050565b60016002600083815260200190815260200160002060006101000a81548160ff02191690831515021790555050565b60015481565b60006020528060005260406000206000915090508060000154908060010180546106d9906112f3565b80601f0160208091040260200160405190810160405280929190818152602001828054610705906112f3565b80156107525780601f1061072757610100808354040283529160200191610752565b820191906000526020600020905b81548152906001019060200180831161073557829003601f168201915b5050505050908060020154908060030154908060040160009054906101000a900460ff16905085565b60036020528160005260406000206020528060005260406000206000915091509054906101000a900460ff1681565b6060600060015467ffffffffffffffff8111156107ca576107c9610b30565b5b6040519080825280602002602001820160405280156107f85781602001602082028036833780820191505090505b5090506000805b6001548110156108825760036000868152602001908152602001600020600082815260200190815260200160002060009054906101000a900460ff161561086f578083838151811061085457610853611325565b5b602002602001018181525050818061086b90611046565b9250505b808061087a90611046565b9150506107ff565b508192505050919050565b7f08eb584b5a32609486d914c177ac0a8f18b358989a7928a177c168c9a7ff8c4c848385846040516108c29493929190611354565b60405180910390a16000730165878a594ca255338adfa4d48449f69242eb8f90508073ffffffffffffffffffffffffffffffffffffffff1663c1ace8e2868587866040518563ffffffff1660e01b81526004016109229493929190611354565b600060405180830381600087803b15801561093c57600080fd5b505af1158015610950573d6000803e3d6000fd5b505050505050505050565b828054610967906112f3565b90600052602060002090601f01602090048101928261098957600085556109d0565b82601f106109a257805160ff19168380011785556109d0565b828001600101855582156109d0579182015b828111156109cf5782518255916020019190600101906109b4565b5b5090506109dd91906109e1565b5090565b5b808211156109fa5760008160009055506001016109e2565b5090565b6000604051905090565b600080fd5b600080fd5b6000819050919050565b610a2581610a12565b8114610a3057600080fd5b50565b600081359050610a4281610a1c565b92915050565b600060208284031215610a5e57610a5d610a08565b5b6000610a6c84828501610a33565b91505092915050565b60008115159050919050565b610a8a81610a75565b82525050565b6000602082019050610aa56000830184610a81565b92915050565b60008060408385031215610ac257610ac1610a08565b5b6000610ad085828601610a33565b9250506020610ae185828601610a33565b9150509250929050565b610af481610a12565b82525050565b6000602082019050610b0f6000830184610aeb565b92915050565b600080fd5b600080fd5b6000601f19601f8301169050919050565b7f4e487b7100000000000000000000000000000000000000000000000000000000600052604160045260246000fd5b610b6882610b1f565b810181811067ffffffffffffffff82111715610b8757610b86610b30565b5b80604052505050565b6000610b9a6109fe565b9050610ba68282610b5f565b919050565b600067ffffffffffffffff821115610bc657610bc5610b30565b5b610bcf82610b1f565b9050602081019050919050565b82818337600083830152505050565b6000610bfe610bf984610bab565b610b90565b905082815260208101848484011115610c1a57610c19610b1a565b5b610c25848285610bdc565b509392505050565b600082601f830112610c4257610c41610b15565b5b8135610c52848260208601610beb565b91505092915050565b600080600060608486031215610c7457610c73610a08565b5b6000610c8286828701610a33565b935050602084013567ffffffffffffffff811115610ca357610ca2610a0d565b5b610caf86828701610c2d565b9250506040610cc086828701610a33565b9150509250925092565b600081519050919050565b600082825260208201905092915050565b60005b83811015610d04578082015181840152602081019050610ce9565b83811115610d13576000848401525b50505050565b6000610d2482610cca565b610d2e8185610cd5565b9350610d3e818560208601610ce6565b610d4781610b1f565b840191505092915050565b6000604082019050610d676000830185610aeb565b8181036020830152610d798184610d19565b90509392505050565b600060a082019050610d976000830188610aeb565b8181036020830152610da98187610d19565b9050610db86040830186610aeb565b610dc56060830185610aeb565b610dd26080830184610a81565b9695505050505050565b600081519050919050565b600082825260208201905092915050565b6000819050602082019050919050565b610e1181610a12565b82525050565b6000610e238383610e08565b60208301905092915050565b6000602082019050919050565b6000610e4782610ddc565b610e518185610de7565b9350610e5c83610df8565b8060005b83811015610e8d578151610e748882610e17565b9750610e7f83610e2f565b925050600181019050610e60565b5085935050505092915050565b60006020820190508181036000830152610eb48184610e3c565b905092915050565b60008060008060808587031215610ed657610ed5610a08565b5b6000610ee487828801610a33565b945050602085013567ffffffffffffffff811115610f0557610f04610a0d565b5b610f1187828801610c2d565b9350506040610f2287828801610a33565b9250506060610f3387828801610a33565b91505092959194509250565b7f436f75727365206973206e6f7420617661696c61626c65000000000000000000600082015250565b6000610f75601783610cd5565b9150610f8082610f3f565b602082019050919050565b60006020820190508181036000830152610fa481610f68565b9050919050565b7f53747564656e7420697320616c726561647920656e726f6c6c65640000000000600082015250565b6000610fe1601b83610cd5565b9150610fec82610fab565b602082019050919050565b6000602082019050818103600083015261101081610fd4565b9050919050565b7f4e487b7100000000000000000000000000000000000000000000000000000000600052601160045260246000fd5b600061105182610a12565b91507fffffffffffffffffffffffffffffffffffffffffffffffffffffffffffffffff82141561108457611083611017565b5b600182019050919050565b7f4f6e6c7920617574686f72697a656420636f6c6c6567652063616e207065726660008201527f6f726d207468697320616374696f6e0000000000000000000000000000000000602082015250565b60006110eb602f83610cd5565b91506110f68261108f565b604082019050919050565b6000602082019050818103600083015261111a816110de565b9050919050565b6000604082019050818103600083015261113b8185610d19565b905061114a6020830184610aeb565b9392505050565b7f53747564656e74206973206e6f7420656e726f6c6c656420696e20746865206360008201527f6f75727365000000000000000000000000000000000000000000000000000000602082015250565b60006111ad602583610cd5565b91506111b882611151565b604082019050919050565b600060208201905081810360008301526111dc816111a0565b9050919050565b6000815190506111f281610a1c565b92915050565b600061120b61120684610bab565b610b90565b90508281526020810184848401111561122757611226610b1a565b5b611232848285610ce6565b509392505050565b600082601f83011261124f5761124e610b15565b5b815161125f8482602086016111f8565b91505092915050565b6000806040838503121561127f5761127e610a08565b5b600061128d858286016111e3565b925050602083015167ffffffffffffffff8111156112ae576112ad610a0d565b5b6112ba8582860161123a565b9150509250929050565b7f4e487b7100000000000000000000000000000000000000000000000000000000600052602260045260246000fd5b6000600282049050600182168061130b57607f821691505b6020821081141561131f5761131e6112c4565b5b50919050565b7f4e487b7100000000000000000000000000000000000000000000000000000000600052603260045260246000fd5b60006080820190506113696000830187610aeb565b6113766020830186610aeb565b81810360408301526113888185610d19565b90506113976060830184610aeb565b9594505050505056fea26469706673582212209bf4bb3183ac4f2e11b5b0b0e7f9c5c4564ceaf683f1990976b4ec8f1a157eca64736f6c634300080b0033",
  "linkReferences": {},
  "deployedLinkReferences": {}
}