{
  "_format": "hh-sol-artifact-1",
  "contractName": "PublicBlockchain",
  "sourceName": "contracts/PublicBlockchain.sol",
  "abi": [
    {
      "inputs": [],
      "stateMutability": "nonpayable",
      "type": "constructor"
    },
    {
      "anonymous": false,
      "inputs": [
        {
          "indexed": true,
          "internalType": "uint256",
          "name": "courseId",
          "type": "uint256"
        },
        {
          "indexed": false,
          "internalType": "string",
          "name": "name",
          "type": "string"
        },
        {
          "indexed": false,
          "internalType": "uint256",
          "name": "credits",
          "type": "uint256"
        },
        {
          "indexed": true,
          "internalType": "address",
          "name": "collegeAddress",
          "type": "address"
        }
      ],
      "name": "CourseAdded",
      "type": "event"
    },
    {
      "anonymous": false,
      "inputs": [
        {
          "indexed": false,
          "internalType": "uint256",
          "name": "uid",
          "type": "uint256"
        },
        {
          "indexed": false,
          "internalType": "uint256",
          "name": "semester",
          "type": "uint256"
        },
        {
          "indexed": false,
          "internalType": "string",
          "name": "courseName",
          "type": "string"
        },
        {
          "indexed": false,
          "internalType": "uint256",
          "name": "grades",
          "type": "uint256"
        }
      ],
      "name": "CreditsIssued",
      "type": "event"
    },
    {
      "anonymous": false,
      "inputs": [
        {
          "indexed": true,
          "internalType": "address",
          "name": "student",
          "type": "address"
        },
        {
          "indexed": true,
          "internalType": "uint256",
          "name": "courseId",
          "type": "uint256"
        }
      ],
      "name": "StudentEnrolled",
      "type": "event"
    },
    {
      "inputs": [
        {
          "internalType": "string",
          "name": "_name",
          "type": "string"
        },
        {
          "internalType": "uint256",
          "name": "_credits",
          "type": "uint256"
        }
      ],
      "name": "addCourse",
      "outputs": [],
      "stateMutability": "nonpayable",
      "type": "function"
    },
    {
      "inputs": [
        {
          "internalType": "address",
          "name": "_collegeAddress",
          "type": "address"
        }
      ],
      "name": "authorizeCollege",
      "outputs": [],
      "stateMutability": "nonpayable",
      "type": "function"
    },
    {
      "inputs": [
        {
          "internalType": "address",
          "name": "",
          "type": "address"
        }
      ],
      "name": "authorizedColleges",
      "outputs": [
        {
          "internalType": "bool",
          "name": "",
          "type": "bool"
        }
      ],
      "stateMutability": "view",
      "type": "function"
    },
    {
      "inputs": [
        {
          "internalType": "uint256",
          "name": "",
          "type": "uint256"
        }
      ],
      "name": "courses",
      "outputs": [
        {
          "internalType": "uint256",
          "name": "courseId",
          "type": "uint256"
        },
        {
          "internalType": "string",
          "name": "name",
          "type": "string"
        },
        {
          "internalType": "uint256",
          "name": "credits",
          "type": "uint256"
        },
        {
          "internalType": "address",
          "name": "collegeAddress",
          "type": "address"
        },
        {
          "internalType": "bool",
          "name": "available",
          "type": "bool"
        }
      ],
      "stateMutability": "view",
      "type": "function"
    },
    {
      "inputs": [
        {
          "internalType": "uint256",
          "name": "_courseId",
          "type": "uint256"
        }
      ],
      "name": "enrollStudent",
      "outputs": [],
      "stateMutability": "nonpayable",
      "type": "function"
    },
    {
      "inputs": [
        {
          "internalType": "uint256",
          "name": "_uid",
          "type": "uint256"
        },
        {
          "internalType": "string",
          "name": "_courseName",
          "type": "string"
        },
        {
          "internalType": "uint256",
          "name": "_semester",
          "type": "uint256"
        },
        {
          "internalType": "uint256",
          "name": "_credits",
          "type": "uint256"
        }
      ],
      "name": "issueCredits",
      "outputs": [],
      "stateMutability": "nonpayable",
      "type": "function"
    },
    {
      "inputs": [],
      "name": "totalCourses",
      "outputs": [
        {
          "internalType": "uint256",
          "name": "",
          "type": "uint256"
        }
      ],
      "stateMutability": "view",
      "type": "function"
    }
  ],
  "bytecode": "0x608060405234801561001057600080fd5b50610de7806100206000396000f3fe608060405234801561001057600080fd5b506004361061007d5760003560e01c8063403377441161005b57806340337744146100ea57806387ac18601461010657806396f979d214610124578063f89c98a1146101585761007d565b80630247ce571461008257806312628bb81461009e57806317acb9b6146100ba575b600080fd5b61009c60048036038101906100979190610876565b610174565b005b6100b860048036038101906100b39190610930565b610360565b005b6100d460048036038101906100cf9190610930565b6103bb565b6040516100e19190610978565b60405180910390f35b61010460048036038101906100ff9190610993565b6103db565b005b61010e610484565b60405161011b91906109cf565b60405180910390f35b61013e60048036038101906101399190610993565b61048a565b60405161014f959493929190610a81565b60405180910390f35b610172600480360381019061016d9190610adb565b610575565b005b600260003373ffffffffffffffffffffffffffffffffffffffff1673ffffffffffffffffffffffffffffffffffffffff16815260200190815260200160002060009054906101000a900460ff16610200576040517f08c379a00000000000000000000000000000000000000000000000000000000081526004016101f790610bd0565b60405180910390fd5b6001600081548092919061021390610c1f565b91905055506040518060a0016040528060015481526020018381526020018281526020013373ffffffffffffffffffffffffffffffffffffffff168152602001600115158152506000806001548152602001908152602001600020600082015181600001556020820151816001019080519060200190610294929190610643565b506040820151816002015560608201518160030160006101000a81548173ffffffffffffffffffffffffffffffffffffffff021916908373ffffffffffffffffffffffffffffffffffffffff16021790555060808201518160030160146101000a81548160ff0219169083151502179055509050503373ffffffffffffffffffffffffffffffffffffffff166001547f2b0b58380bf6f949f0aca71a822ab1851a18953049290acdb2bba7ffa989e9838484604051610354929190610c68565b60405180910390a35050565b6001600260008373ffffffffffffffffffffffffffffffffffffffff1673ffffffffffffffffffffffffffffffffffffffff16815260200190815260200160002060006101000a81548160ff02191690831515021790555050565b60026020528060005260406000206000915054906101000a900460ff1681565b60008082815260200190815260200160002060030160149054906101000a900460ff1661043d576040517f08c379a000000000000000000000000000000000000000000000000000000000815260040161043490610ce4565b60405180910390fd5b803373ffffffffffffffffffffffffffffffffffffffff167f55db50c1751fc3b040692644cad74784bdb2e7c170933754b1fd14ccf38f530a60405160405180910390a350565b60015481565b60006020528060005260406000206000915090508060000154908060010180546104b390610d33565b80601f01602080910402602001604051908101604052809291908181526020018280546104df90610d33565b801561052c5780601f106105015761010080835404028352916020019161052c565b820191906000526020600020905b81548152906001019060200180831161050f57829003601f168201915b5050505050908060020154908060030160009054906101000a900473ffffffffffffffffffffffffffffffffffffffff16908060030160149054906101000a900460ff16905085565b7f08eb584b5a32609486d914c177ac0a8f18b358989a7928a177c168c9a7ff8c4c848385846040516105aa9493929190610d65565b60405180910390a16000735fbdb2315678afecb367f032d93f642f64180aa390508073ffffffffffffffffffffffffffffffffffffffff1663c1ace8e2868587866040518563ffffffff1660e01b815260040161060a9493929190610d65565b600060405180830381600087803b15801561062457600080fd5b505af1158015610638573d6000803e3d6000fd5b505050505050505050565b82805461064f90610d33565b90600052602060002090601f01602090048101928261067157600085556106b8565b82601f1061068a57805160ff19168380011785556106b8565b828001600101855582156106b8579182015b828111156106b757825182559160200191906001019061069c565b5b5090506106c591906106c9565b5090565b5b808211156106e25760008160009055506001016106ca565b5090565b6000604051905090565b600080fd5b600080fd5b600080fd5b600080fd5b6000601f19601f8301169050919050565b7f4e487b7100000000000000000000000000000000000000000000000000000000600052604160045260246000fd5b61074d82610704565b810181811067ffffffffffffffff8211171561076c5761076b610715565b5b80604052505050565b600061077f6106e6565b905061078b8282610744565b919050565b600067ffffffffffffffff8211156107ab576107aa610715565b5b6107b482610704565b9050602081019050919050565b82818337600083830152505050565b60006107e36107de84610790565b610775565b9050828152602081018484840111156107ff576107fe6106ff565b5b61080a8482856107c1565b509392505050565b600082601f830112610827576108266106fa565b5b81356108378482602086016107d0565b91505092915050565b6000819050919050565b61085381610840565b811461085e57600080fd5b50565b6000813590506108708161084a565b92915050565b6000806040838503121561088d5761088c6106f0565b5b600083013567ffffffffffffffff8111156108ab576108aa6106f5565b5b6108b785828601610812565b92505060206108c885828601610861565b9150509250929050565b600073ffffffffffffffffffffffffffffffffffffffff82169050919050565b60006108fd826108d2565b9050919050565b61090d816108f2565b811461091857600080fd5b50565b60008135905061092a81610904565b92915050565b600060208284031215610946576109456106f0565b5b60006109548482850161091b565b91505092915050565b60008115159050919050565b6109728161095d565b82525050565b600060208201905061098d6000830184610969565b92915050565b6000602082840312156109a9576109a86106f0565b5b60006109b784828501610861565b91505092915050565b6109c981610840565b82525050565b60006020820190506109e460008301846109c0565b92915050565b600081519050919050565b600082825260208201905092915050565b60005b83811015610a24578082015181840152602081019050610a09565b83811115610a33576000848401525b50505050565b6000610a44826109ea565b610a4e81856109f5565b9350610a5e818560208601610a06565b610a6781610704565b840191505092915050565b610a7b816108f2565b82525050565b600060a082019050610a9660008301886109c0565b8181036020830152610aa88187610a39565b9050610ab760408301866109c0565b610ac46060830185610a72565b610ad16080830184610969565b9695505050505050565b60008060008060808587031215610af557610af46106f0565b5b6000610b0387828801610861565b945050602085013567ffffffffffffffff811115610b2457610b236106f5565b5b610b3087828801610812565b9350506040610b4187828801610861565b9250506060610b5287828801610861565b91505092959194509250565b7f4f6e6c7920617574686f72697a656420636f6c6c6567652063616e207065726660008201527f6f726d207468697320616374696f6e0000000000000000000000000000000000602082015250565b6000610bba602f836109f5565b9150610bc582610b5e565b604082019050919050565b60006020820190508181036000830152610be981610bad565b9050919050565b7f4e487b7100000000000000000000000000000000000000000000000000000000600052601160045260246000fd5b6000610c2a82610840565b91507fffffffffffffffffffffffffffffffffffffffffffffffffffffffffffffffff821415610c5d57610c5c610bf0565b5b600182019050919050565b60006040820190508181036000830152610c828185610a39565b9050610c9160208301846109c0565b9392505050565b7f436f75727365206973206e6f7420617661696c61626c65000000000000000000600082015250565b6000610cce6017836109f5565b9150610cd982610c98565b602082019050919050565b60006020820190508181036000830152610cfd81610cc1565b9050919050565b7f4e487b7100000000000000000000000000000000000000000000000000000000600052602260045260246000fd5b60006002820490506001821680610d4b57607f821691505b60208210811415610d5f57610d5e610d04565b5b50919050565b6000608082019050610d7a60008301876109c0565b610d8760208301866109c0565b8181036040830152610d998185610a39565b9050610da860608301846109c0565b9594505050505056fea2646970667358221220790832caed700f5b33efee986469c8f663b0b81fc42c4c11e28b83723f84dc4d64736f6c634300080b0033",
  "linkReferences": {},
  "deployedLinkReferences": {}
}