{"contracts/CollegeBlockchain.sol":{"CollegeBlockchain":{"abi":[{"anonymous":false,"inputs":[{"indexed":true,"internalType":"address","name":"student","type":"address"},{"indexed":true,"internalType":"uint256","name":"semester","type":"uint256"},{"indexed":false,"internalType":"string","name":"subject","type":"string"},{"indexed":false,"internalType":"uint256","name":"grade","type":"uint256"}],"name":"GradesUpdated","type":"event"},{"inputs":[{"internalType":"uint256","name":"","type":"uint256"}],"name":"students","outputs":[{"internalType":"uint256","name":"studentId","type":"uint256"},{"internalType":"string","name":"name","type":"string"}],"stateMutability":"view","type":"function"},{"inputs":[],"name":"totalStudents","outputs":[{"internalType":"uint256","name":"","type":"uint256"}],"stateMutability":"view","type":"function"},{"inputs":[{"internalType":"uint256","name":"_uid","type":"uint256"},{"internalType":"uint256","name":"_semester","type":"uint256"},{"internalType":"string","name":"_subject","type":"string"},{"internalType":"uint256","name":"_grade","type":"uint256"}],"name":"updateGrades","outputs":[],"stateMutability":"nonpayable","type":"function"}],"evm":{"bytecode":{"linkReferences":{},"object":"608060405234801561001057600080fd5b506106ec806100206000396000f3fe608060405234801561001057600080fd5b50600436106100415760003560e01c806306ead22e146100465780639852bf8e14610077578063c1ace8e214610095575b600080fd5b610060600480360381019061005b919061028e565b6100b1565b60405161006e929190610363565b60405180910390f35b61007f61015d565b60405161008c9190610393565b60405180910390f35b6100af60048036038101906100aa91906104e3565b610163565b005b60006020528060005260406000206000915090508060000154908060010180546100da90610595565b80601f016020809104026020016040519081016040528092919081815260200182805461010690610595565b80156101535780601f1061012857610100808354040283529160200191610153565b820191906000526020600020905b81548152906001019060200180831161013657829003601f168201915b5050505050905082565b60015481565b600083116101a6576040517f08c379a000000000000000000000000000000000000000000000000000000000815260040161019d90610613565b60405180910390fd5b806000808681526020019081526020016000206002016000858152602001908152602001600020836040516101db919061066f565b908152602001604051809103902081905550823373ffffffffffffffffffffffffffffffffffffffff167ffada27284b574fe4ba27134a82f12324b1bd1f1d906e647b97eed1efc8df2f638484604051610236929190610686565b60405180910390a350505050565b6000604051905090565b600080fd5b600080fd5b6000819050919050565b61026b81610258565b811461027657600080fd5b50565b60008135905061028881610262565b92915050565b6000602082840312156102a4576102a361024e565b5b60006102b284828501610279565b91505092915050565b6102c481610258565b82525050565b600081519050919050565b600082825260208201905092915050565b60005b838110156103045780820151818401526020810190506102e9565b83811115610313576000848401525b50505050565b6000601f19601f8301169050919050565b6000610335826102ca565b61033f81856102d5565b935061034f8185602086016102e6565b61035881610319565b840191505092915050565b600060408201905061037860008301856102bb565b818103602083015261038a818461032a565b90509392505050565b60006020820190506103a860008301846102bb565b92915050565b600080fd5b600080fd5b7f4e487b7100000000000000000000000000000000000000000000000000000000600052604160045260246000fd5b6103f082610319565b810181811067ffffffffffffffff8211171561040f5761040e6103b8565b5b80604052505050565b6000610422610244565b905061042e82826103e7565b919050565b600067ffffffffffffffff82111561044e5761044d6103b8565b5b61045782610319565b9050602081019050919050565b82818337600083830152505050565b600061048661048184610433565b610418565b9050828152602081018484840111156104a2576104a16103b3565b5b6104ad848285610464565b509392505050565b600082601f8301126104ca576104c96103ae565b5b81356104da848260208601610473565b91505092915050565b600080600080608085870312156104fd576104fc61024e565b5b600061050b87828801610279565b945050602061051c87828801610279565b935050604085013567ffffffffffffffff81111561053d5761053c610253565b5b610549878288016104b5565b925050606061055a87828801610279565b91505092959194509250565b7f4e487b7100000000000000000000000000000000000000000000000000000000600052602260045260246000fd5b600060028204905060018216806105ad57607f821691505b602082108114156105c1576105c0610566565b5b50919050565b7f496e76616c69642073656d657374657200000000000000000000000000000000600082015250565b60006105fd6010836102d5565b9150610608826105c7565b602082019050919050565b6000602082019050818103600083015261062c816105f0565b9050919050565b600081905092915050565b6000610649826102ca565b6106538185610633565b93506106638185602086016102e6565b80840191505092915050565b600061067b828461063e565b915081905092915050565b600060408201905081810360008301526106a0818561032a565b90506106af60208301846102bb565b939250505056fea264697066735822122081d1bf7c66cfae75d1c21676b35109b3bd3e5c6a28418654060513b8e744561d64736f6c634300080b0033","opcodes":"PUSH1 0x80 PUSH1 0x40 MSTORE CALLVALUE DUP1 ISZERO PUSH2 0x10 JUMPI PUSH1 0x0 DUP1 REVERT JUMPDEST POP PUSH2 0x6EC DUP1 PUSH2 0x20 PUSH1 0x0 CODECOPY PUSH1 0x0 RETURN INVALID PUSH1 0x80 PUSH1 0x40 MSTORE CALLVALUE DUP1 ISZERO PUSH2 0x10 JUMPI PUSH1 0x0 DUP1 REVERT JUMPDEST POP PUSH1 0x4 CALLDATASIZE LT PUSH2 0x41 JUMPI PUSH1 0x0 CALLDATALOAD PUSH1 0xE0 SHR DUP1 PUSH4 0x6EAD22E EQ PUSH2 0x46 JUMPI DUP1 PUSH4 0x9852BF8E EQ PUSH2 0x77 JUMPI DUP1 PUSH4 0xC1ACE8E2 EQ PUSH2 0x95 JUMPI JUMPDEST PUSH1 0x0 DUP1 REVERT JUMPDEST PUSH2 0x60 PUSH1 0x4 DUP1 CALLDATASIZE SUB DUP2 ADD SWAP1 PUSH2 0x5B SWAP2 SWAP1 PUSH2 0x28E JUMP JUMPDEST PUSH2 0xB1 JUMP JUMPDEST PUSH1 0x40 MLOAD PUSH2 0x6E SWAP3 SWAP2 SWAP1 PUSH2 0x363 JUMP JUMPDEST PUSH1 0x40 MLOAD DUP1 SWAP2 SUB SWAP1 RETURN JUMPDEST PUSH2 0x7F PUSH2 0x15D JUMP JUMPDEST PUSH1 0x40 MLOAD PUSH2 0x8C SWAP2 SWAP1 PUSH2 0x393 JUMP JUMPDEST PUSH1 0x40 MLOAD DUP1 SWAP2 SUB SWAP1 RETURN JUMPDEST PUSH2 0xAF PUSH1 0x4 DUP1 CALLDATASIZE SUB DUP2 ADD SWAP1 PUSH2 0xAA SWAP2 SWAP1 PUSH2 0x4E3 JUMP JUMPDEST PUSH2 0x163 JUMP JUMPDEST STOP JUMPDEST PUSH1 0x0 PUSH1 0x20 MSTORE DUP1 PUSH1 0x0 MSTORE PUSH1 0x40 PUSH1 0x0 KECCAK256 PUSH1 0x0 SWAP2 POP SWAP1 POP DUP1 PUSH1 0x0 ADD SLOAD SWAP1 DUP1 PUSH1 0x1 ADD DUP1 SLOAD PUSH2 0xDA SWAP1 PUSH2 0x595 JUMP JUMPDEST DUP1 PUSH1 0x1F ADD PUSH1 0x20 DUP1 SWAP2 DIV MUL PUSH1 0x20 ADD PUSH1 0x40 MLOAD SWAP1 DUP2 ADD PUSH1 0x40 MSTORE DUP1 SWAP3 SWAP2 SWAP1 DUP2 DUP2 MSTORE PUSH1 0x20 ADD DUP3 DUP1 SLOAD PUSH2 0x106 SWAP1 PUSH2 0x595 JUMP JUMPDEST DUP1 ISZERO PUSH2 0x153 JUMPI DUP1 PUSH1 0x1F LT PUSH2 0x128 JUMPI PUSH2 0x100 DUP1 DUP4 SLOAD DIV MUL DUP4 MSTORE SWAP2 PUSH1 0x20 ADD SWAP2 PUSH2 0x153 JUMP JUMPDEST DUP3 ADD SWAP2 SWAP1 PUSH1 0x0 MSTORE PUSH1 0x20 PUSH1 0x0 KECCAK256 SWAP1 JUMPDEST DUP2 SLOAD DUP2 MSTORE SWAP1 PUSH1 0x1 ADD SWAP1 PUSH1 0x20 ADD DUP1 DUP4 GT PUSH2 0x136 JUMPI DUP3 SWAP1 SUB PUSH1 0x1F AND DUP3 ADD SWAP2 JUMPDEST POP POP POP POP POP SWAP1 POP DUP3 JUMP JUMPDEST PUSH1 0x1 SLOAD DUP2 JUMP JUMPDEST PUSH1 0x0 DUP4 GT PUSH2 0x1A6 JUMPI PUSH1 0x40 MLOAD PUSH32 0x8C379A000000000000000000000000000000000000000000000000000000000 DUP2 MSTORE PUSH1 0x4 ADD PUSH2 0x19D SWAP1 PUSH2 0x613 JUMP JUMPDEST PUSH1 0x40 MLOAD DUP1 SWAP2 SUB SWAP1 REVERT JUMPDEST DUP1 PUSH1 0x0 DUP1 DUP7 DUP2 MSTORE PUSH1 0x20 ADD SWAP1 DUP2 MSTORE PUSH1 0x20 ADD PUSH1 0x0 KECCAK256 PUSH1 0x2 ADD PUSH1 0x0 DUP6 DUP2 MSTORE PUSH1 0x20 ADD SWAP1 DUP2 MSTORE PUSH1 0x20 ADD PUSH1 0x0 KECCAK256 DUP4 PUSH1 0x40 MLOAD PUSH2 0x1DB SWAP2 SWAP1 PUSH2 0x66F JUMP JUMPDEST SWAP1 DUP2 MSTORE PUSH1 0x20 ADD PUSH1 0x40 MLOAD DUP1 SWAP2 SUB SWAP1 KECCAK256 DUP2 SWAP1 SSTORE POP DUP3 CALLER PUSH20 0xFFFFFFFFFFFFFFFFFFFFFFFFFFFFFFFFFFFFFFFF AND PUSH32 0xFADA27284B574FE4BA27134A82F12324B1BD1F1D906E647B97EED1EFC8DF2F63 DUP5 DUP5 PUSH1 0x40 MLOAD PUSH2 0x236 SWAP3 SWAP2 SWAP1 PUSH2 0x686 JUMP JUMPDEST PUSH1 0x40 MLOAD DUP1 SWAP2 SUB SWAP1 LOG3 POP POP POP POP JUMP JUMPDEST PUSH1 0x0 PUSH1 0x40 MLOAD SWAP1 POP SWAP1 JUMP JUMPDEST PUSH1 0x0 DUP1 REVERT JUMPDEST PUSH1 0x0 DUP1 REVERT JUMPDEST PUSH1 0x0 DUP2 SWAP1 POP SWAP2 SWAP1 POP JUMP JUMPDEST PUSH2 0x26B DUP2 PUSH2 0x258 JUMP JUMPDEST DUP2 EQ PUSH2 0x276 JUMPI PUSH1 0x0 DUP1 REVERT JUMPDEST POP JUMP JUMPDEST PUSH1 0x0 DUP2 CALLDATALOAD SWAP1 POP PUSH2 0x288 DUP2 PUSH2 0x262 JUMP JUMPDEST SWAP3 SWAP2 POP POP JUMP JUMPDEST PUSH1 0x0 PUSH1 0x20 DUP3 DUP5 SUB SLT ISZERO PUSH2 0x2A4 JUMPI PUSH2 0x2A3 PUSH2 0x24E JUMP JUMPDEST JUMPDEST PUSH1 0x0 PUSH2 0x2B2 DUP5 DUP3 DUP6 ADD PUSH2 0x279 JUMP JUMPDEST SWAP2 POP POP SWAP3 SWAP2 POP POP JUMP JUMPDEST PUSH2 0x2C4 DUP2 PUSH2 0x258 JUMP JUMPDEST DUP3 MSTORE POP POP JUMP JUMPDEST PUSH1 0x0 DUP2 MLOAD SWAP1 POP SWAP2 SWAP1 POP JUMP JUMPDEST PUSH1 0x0 DUP3 DUP3 MSTORE PUSH1 0x20 DUP3 ADD SWAP1 POP SWAP3 SWAP2 POP POP JUMP JUMPDEST PUSH1 0x0 JUMPDEST DUP4 DUP2 LT ISZERO PUSH2 0x304 JUMPI DUP1 DUP3 ADD MLOAD DUP2 DUP5 ADD MSTORE PUSH1 0x20 DUP2 ADD SWAP1 POP PUSH2 0x2E9 JUMP JUMPDEST DUP4 DUP2 GT ISZERO PUSH2 0x313 JUMPI PUSH1 0x0 DUP5 DUP5 ADD MSTORE JUMPDEST POP POP POP POP JUMP JUMPDEST PUSH1 0x0 PUSH1 0x1F NOT PUSH1 0x1F DUP4 ADD AND SWAP1 POP SWAP2 SWAP1 POP JUMP JUMPDEST PUSH1 0x0 PUSH2 0x335 DUP3 PUSH2 0x2CA JUMP JUMPDEST PUSH2 0x33F DUP2 DUP6 PUSH2 0x2D5 JUMP JUMPDEST SWAP4 POP PUSH2 0x34F DUP2 DUP6 PUSH1 0x20 DUP7 ADD PUSH2 0x2E6 JUMP JUMPDEST PUSH2 0x358 DUP2 PUSH2 0x319 JUMP JUMPDEST DUP5 ADD SWAP2 POP POP SWAP3 SWAP2 POP POP JUMP JUMPDEST PUSH1 0x0 PUSH1 0x40 DUP3 ADD SWAP1 POP PUSH2 0x378 PUSH1 0x0 DUP4 ADD DUP6 PUSH2 0x2BB JUMP JUMPDEST DUP2 DUP2 SUB PUSH1 0x20 DUP4 ADD MSTORE PUSH2 0x38A DUP2 DUP5 PUSH2 0x32A JUMP JUMPDEST SWAP1 POP SWAP4 SWAP3 POP POP POP JUMP JUMPDEST PUSH1 0x0 PUSH1 0x20 DUP3 ADD SWAP1 POP PUSH2 0x3A8 PUSH1 0x0 DUP4 ADD DUP5 PUSH2 0x2BB JUMP JUMPDEST SWAP3 SWAP2 POP POP JUMP JUMPDEST PUSH1 0x0 DUP1 REVERT JUMPDEST PUSH1 0x0 DUP1 REVERT JUMPDEST PUSH32 0x4E487B7100000000000000000000000000000000000000000000000000000000 PUSH1 0x0 MSTORE PUSH1 0x41 PUSH1 0x4 MSTORE PUSH1 0x24 PUSH1 0x0 REVERT JUMPDEST PUSH2 0x3F0 DUP3 PUSH2 0x319 JUMP JUMPDEST DUP2 ADD DUP2 DUP2 LT PUSH8 0xFFFFFFFFFFFFFFFF DUP3 GT OR ISZERO PUSH2 0x40F JUMPI PUSH2 0x40E PUSH2 0x3B8 JUMP JUMPDEST JUMPDEST DUP1 PUSH1 0x40 MSTORE POP POP POP JUMP JUMPDEST PUSH1 0x0 PUSH2 0x422 PUSH2 0x244 JUMP JUMPDEST SWAP1 POP PUSH2 0x42E DUP3 DUP3 PUSH2 0x3E7 JUMP JUMPDEST SWAP2 SWAP1 POP JUMP JUMPDEST PUSH1 0x0 PUSH8 0xFFFFFFFFFFFFFFFF DUP3 GT ISZERO PUSH2 0x44E JUMPI PUSH2 0x44D PUSH2 0x3B8 JUMP JUMPDEST JUMPDEST PUSH2 0x457 DUP3 PUSH2 0x319 JUMP JUMPDEST SWAP1 POP PUSH1 0x20 DUP2 ADD SWAP1 POP SWAP2 SWAP1 POP JUMP JUMPDEST DUP3 DUP2 DUP4 CALLDATACOPY PUSH1 0x0 DUP4 DUP4 ADD MSTORE POP POP POP JUMP JUMPDEST PUSH1 0x0 PUSH2 0x486 PUSH2 0x481 DUP5 PUSH2 0x433 JUMP JUMPDEST PUSH2 0x418 JUMP JUMPDEST SWAP1 POP DUP3 DUP2 MSTORE PUSH1 0x20 DUP2 ADD DUP5 DUP5 DUP5 ADD GT ISZERO PUSH2 0x4A2 JUMPI PUSH2 0x4A1 PUSH2 0x3B3 JUMP JUMPDEST JUMPDEST PUSH2 0x4AD DUP5 DUP3 DUP6 PUSH2 0x464 JUMP JUMPDEST POP SWAP4 SWAP3 POP POP POP JUMP JUMPDEST PUSH1 0x0 DUP3 PUSH1 0x1F DUP4 ADD SLT PUSH2 0x4CA JUMPI PUSH2 0x4C9 PUSH2 0x3AE JUMP JUMPDEST JUMPDEST DUP2 CALLDATALOAD PUSH2 0x4DA DUP5 DUP3 PUSH1 0x20 DUP7 ADD PUSH2 0x473 JUMP JUMPDEST SWAP2 POP POP SWAP3 SWAP2 POP POP JUMP JUMPDEST PUSH1 0x0 DUP1 PUSH1 0x0 DUP1 PUSH1 0x80 DUP6 DUP8 SUB SLT ISZERO PUSH2 0x4FD JUMPI PUSH2 0x4FC PUSH2 0x24E JUMP JUMPDEST JUMPDEST PUSH1 0x0 PUSH2 0x50B DUP8 DUP3 DUP9 ADD PUSH2 0x279 JUMP JUMPDEST SWAP5 POP POP PUSH1 0x20 PUSH2 0x51C DUP8 DUP3 DUP9 ADD PUSH2 0x279 JUMP JUMPDEST SWAP4 POP POP PUSH1 0x40 DUP6 ADD CALLDATALOAD PUSH8 0xFFFFFFFFFFFFFFFF DUP2 GT ISZERO PUSH2 0x53D JUMPI PUSH2 0x53C PUSH2 0x253 JUMP JUMPDEST JUMPDEST PUSH2 0x549 DUP8 DUP3 DUP9 ADD PUSH2 0x4B5 JUMP JUMPDEST SWAP3 POP POP PUSH1 0x60 PUSH2 0x55A DUP8 DUP3 DUP9 ADD PUSH2 0x279 JUMP JUMPDEST SWAP2 POP POP SWAP3 SWAP6 SWAP2 SWAP5 POP SWAP3 POP JUMP JUMPDEST PUSH32 0x4E487B7100000000000000000000000000000000000000000000000000000000 PUSH1 0x0 MSTORE PUSH1 0x22 PUSH1 0x4 MSTORE PUSH1 0x24 PUSH1 0x0 REVERT JUMPDEST PUSH1 0x0 PUSH1 0x2 DUP3 DIV SWAP1 POP PUSH1 0x1 DUP3 AND DUP1 PUSH2 0x5AD JUMPI PUSH1 0x7F DUP3 AND SWAP2 POP JUMPDEST PUSH1 0x20 DUP3 LT DUP2 EQ ISZERO PUSH2 0x5C1 JUMPI PUSH2 0x5C0 PUSH2 0x566 JUMP JUMPDEST JUMPDEST POP SWAP2 SWAP1 POP JUMP JUMPDEST PUSH32 0x496E76616C69642073656D657374657200000000000000000000000000000000 PUSH1 0x0 DUP3 ADD MSTORE POP JUMP JUMPDEST PUSH1 0x0 PUSH2 0x5FD PUSH1 0x10 DUP4 PUSH2 0x2D5 JUMP JUMPDEST SWAP2 POP PUSH2 0x608 DUP3 PUSH2 0x5C7 JUMP JUMPDEST PUSH1 0x20 DUP3 ADD SWAP1 POP SWAP2 SWAP1 POP JUMP JUMPDEST PUSH1 0x0 PUSH1 0x20 DUP3 ADD SWAP1 POP DUP2 DUP2 SUB PUSH1 0x0 DUP4 ADD MSTORE PUSH2 0x62C DUP2 PUSH2 0x5F0 JUMP JUMPDEST SWAP1 POP SWAP2 SWAP1 POP JUMP JUMPDEST PUSH1 0x0 DUP2 SWAP1 POP SWAP3 SWAP2 POP POP JUMP JUMPDEST PUSH1 0x0 PUSH2 0x649 DUP3 PUSH2 0x2CA JUMP JUMPDEST PUSH2 0x653 DUP2 DUP6 PUSH2 0x633 JUMP JUMPDEST SWAP4 POP PUSH2 0x663 DUP2 DUP6 PUSH1 0x20 DUP7 ADD PUSH2 0x2E6 JUMP JUMPDEST DUP1 DUP5 ADD SWAP2 POP POP SWAP3 SWAP2 POP POP JUMP JUMPDEST PUSH1 0x0 PUSH2 0x67B DUP3 DUP5 PUSH2 0x63E JUMP JUMPDEST SWAP2 POP DUP2 SWAP1 POP SWAP3 SWAP2 POP POP JUMP JUMPDEST PUSH1 0x0 PUSH1 0x40 DUP3 ADD SWAP1 POP DUP2 DUP2 SUB PUSH1 0x0 DUP4 ADD MSTORE PUSH2 0x6A0 DUP2 DUP6 PUSH2 0x32A JUMP JUMPDEST SWAP1 POP PUSH2 0x6AF PUSH1 0x20 DUP4 ADD DUP5 PUSH2 0x2BB JUMP JUMPDEST SWAP4 SWAP3 POP POP POP JUMP INVALID LOG2 PUSH5 0x6970667358 0x22 SLT KECCAK256 DUP2 0xD1 0xBF PUSH29 0x66CFAE75D1C21676B35109B3BD3E5C6A28418654060513B8E744561D64 PUSH20 0x6F6C634300080B00330000000000000000000000 "},"methodIdentifiers":{"students(uint256)":"06ead22e","totalStudents()":"9852bf8e","updateGrades(uint256,uint256,string,uint256)":"c1ace8e2"}}}}}